:400000000080002011000000450600004506000008B5044B1A6803F53F5302331A6000F019FB00BFFA46004010B5054C237833B9044B13B10448AFF300800123237010BDCD
:400040006081FF1F000000007C2B0000084B10B51BB108490848AFF300800848036803B910BD074B002BFBD0BDE81040184700BF000000006481FF1F7C2B0000C880FF1F84
:400080000000000038B5164B1B7802F0DBF8154C256800F027FC144B58552368013323600F2B1BDD254600242C6002F083F86C600F232246184609E013F0010F05D00A49A9
:4000C000C95C81400A43D2B20138013B002BF3DA04498B680548C25401338B6038BD00BF676500407C81FF1FA485FF1FB083FF1F08B5324B1B78324BDB68324AD25C3249F5
:400100000A70324909688B4257DA2D4B1B7C002B53D12B4B5B695BB9012000F0F5FC284AD16852692A4B03EB01133121995431E013F0010F0BD0002000F0E6FC204AD168FD
:400140005269234B03EB01133021995422E01C4B9B69C3F106031A4112F0010F0BD0012000F0D2FC164AD1685269194B03EB0113312199540AE0002000F0C6FC104AD1687D
:400180005269134B03EB0113302199540C4A93690133936140F2EF1000F0B8FA084A5369013353610F2B08DD1346D2680132DA6000209861586100F0A7FC08BD6565004050
:4001C0007C81FF1FB481FF1FAD83FF1FA883FF1FB485FF1F08B5044B1B7801F015FF0022024B1A7408BD00BF6F6400407C81FF1F38B51A4B1B781A4B1B7F1BB90022184B13
:400200001A7438BD164C01232374002000F07CFC00236361A36101F091FF013002F0D6F900224FF07E5302F037FA00220D4B02F033FA04460D4602F041FC80B201F0F8FE65
:400240000022094B2046294602F072F802F036FC80B201F0F9FE01F01FFF38BD676400407C81FF1F00408F400000F03F08B5094B1B7F63B9342000F0F3FA332000F0FCFA00
:4002800000F022FB034B01221A7702221A7401F0D9FF08BD7C81FF1F08B5094B1B7F73B140F23E3000F0DCFA40F23D3000F0E4FA00F00AFB024B00221A7702221A7408BDC6
:4002C0007C81FF1F08B562B6434800F0A7FA434800F066FB424800F08BFB00F0DFFB2F2000F0A8FB2E2000F0B1FB3E4800F0FEFB312001F07FFF322001F070FF3A4801F02C
:40030000C9FF3A4801F0F0FE01F03EFF384B1878012100F003FD00F0F1FEB0F5614F02D10122344B1A6200F037FD20B100F02EFD08B100F04FFE00F0B1FE70B12E4800F0F0
:40034000C5FE2E4B186000F0B5FE0028FBD000F08DFE284B00225A62DA60264B1B7C012B27D013B1022B12D0D5E7012000F0C2FA00F0CCFAB0FA80F0400900F0E3FA00F0D0
:40038000C5FAB0FA80F0400900F0C8FAC3E7012000F0D8FA00F0E2FAB0FA80F0400900F0A9FA00F0DBFAB0FA80F0400900F0B6FAB1E7012000F0B2FA00F0BCFAB0FA80F03D
:4003C000400900F097FA00F0B5FAB0FA80F0400900F0B8FA9FE700BFF10100006D02000099020000F100000085000000D501000015A5FF1F7C81FF1FB481FF1FA883FF1F73
:40040000FEE700BFF0B40022174611E050F82760F3B226F0FF0608E001EB420511F812406D78A5550132013BDBB2002BF4D101371E2FEBD9F0BC7047064B1B78DBB203F024
:400440000701054A11701B09013213704422034B1A707047CF0100496E5800407658004008B50A46002102F080FB08BD38B5EF22284B1A80182328490B7002310A80274AE8
:40048000137040F23F1102321180023213700622234B1A705222A3F580731A70214B1B78DBB2214A13704FF4E162204B1A8041F25122023B1A80002419250CE01C4B1B7848
:4004C00003F0010343EA440404F003044FF4F07001F0EEFE013D0DB1032CEFD115B90320FFF78EFF134A4FF48073138007231370002311490B70482002310870137005321E
:40050000137002220D4B1A700D4A137843F00703137038BD804000408240004086400040004300400F010049A14600402242004025420040044000400640004001400040BA
:40054000A243004008B502F005FB08BD38B572B62C4A137843F00403137000240CE02A4D630019194A0011462A44084691882858FFF776FF0134E4B2072CF0D923494FF020
:400580009040FFF73FFF224A137843F0020313701032137843F0020313701E4C237843F040032370A2F58632513A137843F010031370082218491948FFF7C4FF0A2218498F
:4005C0001848FFF7BFFF082217491848FFF7BAFF082217491748FFF7B5FF174A137843F008031370154D01232B70FFF73FFF81232B70FFF721FF0E2221461148FFF7A2FFDD
:4006000038BD00BFE8460040802B00007C00004803500140A043004094030048C25100409C030048F0510040A803004812510040B003004832510040224300400048004057
:40064000B043004008B502F059FA03680C2B00D1FEE7FEE708B5104E104D16E029686B68AC68002204E051F8040B43F8040B0432A242F8D1E868002203E0002143F8041BC7
:4006800004328242F9D11035013E002EE6D102F03BFAFFF717FEFEE7010000004C2D000008B5104A104B1A60104A136843F40073136000230AE0032B03D80D4A52F82310B4
:4006C00000E00C490C4A42F8231001332F2BF2D90A4B1A780A4B1A70074A0A4B1A60FFF735FF08BD0004FA050CED00E014ED00E000000000450600000080FF1FBC760040BC
:40070000C080FF1F08ED00E001BE704708B5034B1B7A00FB03F001F0CBFD08BDCC80FF1F70B504460E46074B1D681F2802D90020FFF7EAFF04F01F04103455F8240045F8D6
:40074000246070BD08ED00E038B504460D46072902D90020FFF7D8FF1F2C02D90020FFF7D3FF04F01F0000F1604000F564406D01EDB2057038BD00BF134B1B78DBB203600F
:40078000124A127843EA02230360114A127843EA024303600F4A127843EA026303600E4B1B78DBB243600D4A127843EA022343600B4A127843EA024343600A4A127843EA1B
:4007C00002634360704700BF0301004904010049EC4600400201004901010049000100490501004906010049014B1B681865704708ED00E04001C0B2014B1870704700BF19
:4008000004E400E01022014B1A60704700E100E01022014B1A60704780E100E010B50446FFF7F6FF2046FFF7DFFF0120FFF7E2FFFFF7E8FF10BD00BF024A137843F080036E
:400840001370704777640040014B1870704700BF87640040014B1878704700BF67640040014B1880704700BF4C680040014B188880B270478C680040014B1880704700BFA0
:400880000C68004008B501E0FFF7F0FFFFF7E2FF10F0080FF8D108BD08B50920FFF7E0FF0920FFF7E9FF01F00BFD064A137843F01003137001F008FDFFF7E4FF0120FFF740
:4008C000C3FF08BD9764004008B5054B1B7823B9FFF7E2FF0122024B1A70FFF7ADFF08BDA881FF1F024B1878C0F30010704700BFC1510040044A137803F0FB03800000F099
:40090000040018431070704730510040024B1878C0F38000704700BF31510040044A137803F0FE0300F0010018431070704700BF30510040024B187800F00100704700BF04
:4009400031510040044A137803F0FD03400000F0020018431070704730510040024B1878C0F34000704700BF31510040014B1B689864704708ED00E04001C0B2014B18707E
:40098000704700BF02E400E00422014B1A60704700E100E00422014B1A60704780E100E010B50446FFF7F6FF2046FFF7DFFF0020FFF7E2FFFFF7E8FF10BD00BF014B1B6850
:4009C0005864704708ED00E04001C0B2014B1870704700BF01E400E00222014B1A60704700E100E00222014B1A60704780E100E010B50446FFF7F6FF2046FFF7DFFF002055
:400A0000FFF7E2FFFFF7E8FF10BD00BF024A137843F080031370704775650040014B1870704700BF85650040014B1878704700BF65650040014B1880704700BF486A004079
:400A4000014B188880B27047886A0040014B1880704700BF086A004008B501E0FFF7F0FFFFF7E2FF10F0080FF8D108BD08B50920FFF7E0FF0920FFF7E9FF01F021FC064A44
:400A8000137843F01003137001F01EFCFFF7E4FF0120FFF7C3FF08BD9565004008B5054B1B7823B9FFF7E2FF0122024B1A70FFF7ADFF08BDA981FF1F014B1B6858657047E7
:400AC00008ED00E04001C0B2014B1870704700BF05E400E02022014B1A60704700E100E02022014B1A60704780E100E010B50446FFF7F6FF2046FFF7DFFF0220FFF7E2FFAE
:400B0000FFF7E8FF10BD00BF044A137803F0BF03800100F0400018431070704730510040F8B501F0CDFB0546404A137843F0010313701032137843F00103137001273C4B04
:400B40001F700226943B1E7002F5E2521B32137803F07F0313700020FFF7D8FD354C237803F0F9032370344A137803F0DF03137023783B4323703846FFF7C8FD2820FFF759
:400B8000C5FD2E4B1A7802F07F021A701A7802F0BF021A702378334323703046FFF7B6FD237843F0040323700023254A137001321370284601F088FB07211720FFF7C4FDAE
:400BC00020491720FFF7ACFD07211820FFF7BCFD1D491820FFF7A4FD07211520FFF7B4FD1A491520FFF79CFD07210620FFF7ACFD17490620FFF794FD07210846FFF7A4FD40
:400C000014490720FFF78CFD07210820FFF79CFD11490820FFF784FD07210C20FFF794FD0E490C20FFF77CFDF8BD00BFA54300409D6000409443004012600040F8510040E1
:400C400084600040951600007D14000091160000F115000021160000551600009D16000008B5224B18700023214A1370214A1370214A1370214A1370214A1370214A1370A9
:400C8000214A1370214B4FF400021A604FF080721A604FF400121A6040221A6080221A604FF480721A6011B1012906D00BE0184A137803F0FE0313700AE0154A137843F0E2
:400CC0000103137004E0124A137843F0010313700322104B1A708022203B1A70012001F0E7FA04220C4B1A7008BD00BF15A5FF1F0CA5FF1F8FA5FF1F12A5FF1F14A5FF1F34
:400D000093A5FF1F94A5FF1F92A5FF1F00E100E009600040286000401260004038B504460D46064B1B7823B9FFF7FAFE0122034B1A7029462046FFF793FF38BDAA81FF1FFF
:400D400000230A4A13700A4A13700A4A13700A4A13700A4A13700A4A13700A4A13700322094B1A708022203B1A7070470CA5FF1F8FA5FF1F12A5FF1F14A5FF1F93A5FF1F0B
:400D800094A5FF1F92A5FF1F28600040014B1878704700BF12A5FF1F064B1B7813F0FF0F05D0044B1878C0B200221A7070470020704700BF8FA5FF1F00EB40008300024A38
:400DC00013445878704700BF18A5FF1F431EDBB2072B0BD8064B00011A18185C00F00F00537843EA0020023880B2704700207047FC5F0040431EDBB2072B3CD8F0B40746AF
:400E000000EB4004A3001C4C2344DB889BB2C3F500739A4208D900EB400293002344DA8892B2C2F5007292B200EB4004A300124C2344DB7843EA1223104D04012E192B55CA
:400E4000D3B2737039B909E0CE5C3D010C4C665501339BB200E000239A42F5D8420002449300054A134400225A705A79D2B20001044B1A54F0BC704718A5FF1FFC5F0040EC
:400E800078600040FE5F0040431EDBB2072B0BD8420002449300054A134400225A705A79D2B20001024B1A54704700BF18A5FF1FFE5F004070B5D9B1054614460E46C8B1AB
:400EC000082819D8FFF782FFA04203D22846FFF77DFF0446002305E02901094A525CF25401339BB2A342F7D32846FFF7CDFF04E0002402E0002400E00024204670BD00BF3C
:400F00007860004010B4FF2400230EE0094AD25C02EB42029100084A11448A7AD2B2824201D11C4602230133DBB2012BEED9204610BC7047FCA4FF1F18A5FF1F10B5204CAB
:400F40002079FFF7DFFF237813F0800F0ED06378DBB2212B2FD11B4B07221A80C0EBC000194A1044586000F0F7FA10BD144B5B78DBB2202B02D0222B10D01EE0114A072308
:400F80001380C0EBC00310490B4453600F4A135C43F00103135400F007FB10BD084B9B780B4A22F81030094A135C43F00203135400F090F910BD002010BD002010BD00BF5B
:400FC0000060004098A5FF1FDC80FF1FF4A4FF1F04A5FF1F10B500241F4B1C701F4B1C705C700AE01E4B185DC0B2431EDBB2072B01D8FFF749FF0134E4B2012CF2D9194BC6
:401000001B7813F0FF0F1AD0154B1B7813F0FF0F17D0154B1B7813F0FF0F14D0114B1B78DBB2082B11D80E4B1B78DBB2082B0ED80D4B1B78DBB2082B0BD8002010BD012089
:4010400010BD012010BD012010BD012010BD012010BD012010BD00BFAB81FF1FF4A4FF1F00A5FF1FF8A4FF1FFCA4FF1F00B583B0074B1B88ADF80430064B1B78064AD05CED
:40108000022201A9FFF7B6FE03B05DF804FB00BFB02B0000AB81FF1FF8A4FF1F08B5034B1B78034AD05CFFF787FE08BDAB81FF1F00A5FF1F08B5034B1B78034AD05CFFF7A2
:4010C0007BFE08BDAB81FF1FF8A4FF1F08B5084B1B78084AD35CDBB203EB43018A0006490A44128992B201461846FFF7E3FE08BDAB81FF1F00A5FF1F18A5FF1F10B4094B84
:401100001B78094CC3EBC303E118C8788A7842EA00204A7842EA0022E05C40EA022010BC704700BFAB81FF1FDC80FF1FC37803F0030390F9020000280FDA032B06D002F068
:4011400001030B48C15442F001020EE0C2F380030848C15442F0040207E0032B05D0C2F340030548C15442F002021046704700BFF8A4FF1FFCA4FF1F00A5FF1F1D4B197891
:401180001D4A13889BB20B449BB2138000220FE01A494B681B78DBB2194883544B6801334B600132D2B20B889BB2013B9BB20B80124B1B889BB20BB1072AE9D90D4B1B780E
:4011C000DBB2082B00D05AB10E490B7883F080030B700F210C4B197002210C4B197004E0022309490B7009490B70094B1A70014B1A70704792A5FF1F88A5FF1F98A5FF1FED
:401200000060004013A5FF1F95A5FF1F0CA5FF1F8EA5FF1F0222074B1A708022064B1A700F22064B1A700023054A1370054A1370012070470CA5FF1F13A5FF1F95A5FF1F9B
:4012400092A5FF1F8EA5FF1F08B5FFF797FF08BD10B4194B197801F00F010239C9B2174A13889BB20B449BB21380002011E0144A5468144B1B5CDBB223705368013353600F
:401280000130C0B20139C9B213889BB2013B9BB213800B4B1B889BB20BB10029E7D10A4B19700A4A137883F0800313700B22084B1A7010BC704700BF2960004088A5FF1F59
:4012C00098A5FF1F006000408EA5FF1F13A5FF1F95A5FF1F0623064A1370064A13708022054B1A700022054B1A700120704700BF0CA5FF1F95A5FF1F13A5FF1F8EA5FF1F48
:40130000064B9B6843B1054B9A6810709A6804490988518000229A60704700BF98A5FF1F88A5FF1F08B5134B1A78D2B21A701B78DBB213F0800F02D00F4A137008BD0220A8
:40134000FFF7DEFF0D4B1B7803F06003202B05D0402B06D043B900F091FC06E000F0B8FF03E000F035FE00E0002010B90322024B1A7008BD2860004095A5FF1F00600040A2
:4013800008B5094B1978094A13889BB20B449BB213800022064B1A700120FFF7B1FF0322044B1A7008BD00BF92A5FF1F88A5FF1F0CA5FF1F95A5FF1F08B50B4B1B78DBB2E1
:4013C000042B06D0062B07D0022B0BD1FFF7D8FF08BDFFF73DFF08BD0320FFF791FF0322024B1A7008BD00BF0CA5FF1F95A5FF1F08B50022044B1A700120FFF781FF03228A
:40140000024B1A7008BD00BF0CA5FF1F95A5FF1F08B50B4B1B7813F0FF0F07D0084A137843F0800307490B70002313700022064B1A700120FFF764FF0322044B1A7008BD5E
:4014400093A5FF1F086000400CA5FF1F95A5FF1F08B5094B1B78DBB2042B06D0062B07D0022B07D1FFF7F0FE08BDFFF7C1FF08BDFFF7CEFF08BD00BF0CA5FF1F08B5284B9A
:401480001B78DBB213F0100F48D013F0800F0CD003F00F03012B16D1FFF744FF214B1B7813F0800F11D1012312E013F0400F03D0FFF7CEFF01230BE013F0200F07D0FFF794
:4014C0007BFF012304E0002302E0002300E0002323B3134B1B7813F0800F1FD1124B1B78124A12781343124A13701278D2B2934214D10C4B1B78DBB2094A127812F0800F3E
:4015000007D1084B1B78DBB2054A1370137803F00F03044A1278D2B29342EAD108BD00BF2860004095A5FF1F13A5FF1F8EA5FF1F296000400022064B1A80064B9B682BB141
:40154000044A916800230B7092685380704700BF88A5FF1F98A5FF1F08B50F4B1B889BB213B9FFF757FE15E002220C4B1A7000220B4B1A70FFF7DEFF0A4AD179937943EAD9
:401580000123054A128892B2934201D2024A1380FFF7F4FD012008BD98A5FF1F0CA5FF1F13A5FF1F0060004008B504220B4B1A7080220B4B1A70FFF7BDFF0A4AD179937945
:4015C00043EA0123084A128892B2934201D2064A13800B22054B1A70012008BD0CA5FF1F13A5FF1F0060004098A5FF1F95A5FF1F0122094B1A700F3B9B7C084B1B7B03F0BC
:401600000303934204D0054AD37B83F08003D3730122024B5A7370470B60004018A5FF1F02220A4B1A700F3B93F82230084B1B7E03F00303012B04D0054AD37E83F0800303
:40164000D3760122024B5A76704700BF0B60004018A5FF1F04220C4B1A700F3B93F832300A4B93F8243003F00303012B06D0074A92F8273083F0800382F827300122034B0E
:4016800083F82520704700BF0B60004018A5FF1F704700BF08B5FFF753FB08BD08B500F0A3FC08BD70B588B0054603AC174E0FCE0FC43368237035B322232B7003236B70BE
:4016C00001A8FFF759F8002402231AE008AA224412F81C2C08A901EB121111F8141CE954581C00212954981C02F00F0208AE324412F8142C2A54DA1CA9540134E4B2043365
:40170000DBB2212BE2D908B070BD00BFB42B000010B401233EE019461A010C242148845403EB4300820020480244527912F0FF0F13D003EB430082001B480244127912F099
:40174000800F04D01801194A024494700AE01801164A02440820907004E01801134A0244802090704800084482000F480244D488E4B208010B4901448C71D088C0F30720B9
:40178000C871D088C0B20871D288C2F307224A710133DBB2082BBED9FF22054B1A7010BC704700BF7060004018A5FF1FFC5F00400A600040074B1A78074B03EBC2035B6816
:4017C0001A7C824204D9C00010301844406870470020704715A5FF1FC82B0000F8B5404B1B7813F0FF0F79D03D4B18780138C0B2FFF7E0FF047AC2683A4B1878C0B2002346
:401800006AE01178884264D13749095CC9B25578A9425ED1917801F07F01D67806F00306DFF8C8E04D000D44AF000EEB07054FF0000C85F803C092F802C085F804C092F855
:4018400003C00EF807C097882F8192F90250002D0DDA012E01D1072700E00D274E000E44B500224E35446F7101266E700CE0012E01D1052700E009274E000E44B5001B4ECB
:4018800035446F7100266E70DFF868E00F010EEB07060125B57001FA05F529448D00134929440D89C5F307250EF807500D89EDB27570CE88F6B20E4D3D44AE71CE88C6F39A
:4018C0000726EE71CE88F6B22E71C988C1F30721697108320133DBB2A34292D3F8BD00BF12A5FF1F14A5FF1F8CA5FF1F18A5FF1F70600040FC5F0040034B1A78034B03EB62
:40190000C2035868704700BF15A5FF1FC82B000008B5084B18780138C0B2FFF74BFF30B142681279023200EBC203586808BD002008BD00BF12A5FF1F2DE9F047002310E0FE
:40194000724D5900CA189600AC190022AA55A270E2702281A272627034462C4462710133DBB2082BECD940B90AE000226849CA546849CA540133DBB200E00023012BF4D92E
:40198000654B1B7813F0FF0F00F0BD80624B18780138C0B2FFF70EFF80464368DB7913F0400F05D05D4A137843F00103137004E05A4A137803F0FE03137098F808704FF012
:4019C000000A01266FE0D8F80C50002467E0AB7803F07F039E425FD1314606EB460083004A4803441B899BB2A888834206D206EB460E4FEA8E03454A134418812B784448A3
:401A0000C35CDBB26878834246D195F802C0DFF8FCE04B000B4498000EEB000383F804C0EB780EF80030EB7803F0030395F90200002813DA012B02D14FF0070901E04FF0C7
:401A40000D09DFF8C8E04B0003EB010C4FEA8C00704480F805900121417012E0012B02D14FF0050901E04FF00909DFF8A0E04B0003EB010C4FEA8C00704480F8059000217E
:401A80004170AB790A2B01D0022B05D1524631462846FFF74BFB824608350134E4B2BC4295D30136F6B2082E8DD9D8F80C0000220CE0837803F07F0310F8084B03EB4303F5
:401AC0009900124B19448C720132D2B2BA42F0D3FFF71EFF124B1860002301210FE00B4D4A00501884002C44E380228992B213449BB203F0010213449BB20131C9B2082997
:401B0000EDD9FFF705FEBDE8F08700BF18A5FF1F8CA5FF1F10A5FF1F12A5FF1F94A5FF1F84A5FF1F08B5154B1B7903F07F035A1ED2B2072A20D8590019448A0010490A4469
:401B4000917841F0010191700021D170517841F002015170127912F0800F05D01B01094A1A448D23937004E01B01064A1A4489239370FFF7AFFB08BD002008BD0060004050
:401B800018A5FF1FFC5F0040264B1B7903F07F035A1ED2B2072A43D810B5590019448A0021490A44917801F0FE0191700021D17019017F241D484454517801F0FD015170A1
:401BC000127912F0800F14D003EB43018A0016490A445278D2B2012A05D11B0102461A440C23937019E01B01104A1A440D23937013E003EB43018A000B490A445278D2B29A
:401C0000012A05D11B01094A1A440823937004E01B01064A1A4409239370FFF75BFB10BD002070470060004018A5FF1FFC5F004010B50E4B1C79E4B20D4B18780138C0B2E9
:401C4000FFF7B8FD43681B799C4201D9022C0AD8084A135DDBB208490B55044B9B78DBB21355012010BD002010BD00BF0060004012A5FF1F8CA5FF1F10A5FF1F10B59C4B7E
:401C80001B78DBB200219B4A118013F0800F00F0AD80974A5278D2B20A2A00F27481DFE812F06900720172017201720172010B007201920072019A008D4BDB78DBB2012B02
:401CC00009D1FFF719FE42688A4B5A6012221A80FFF742FC10BD864BDB78DBB2022B13D1834B9878FFF766FD002800F04E814268804B5A605A68D1785A68927842EA0122C0
:401D00001A80FFF729FC10BD794BDB78DBB2032B05D02CE00A7811440133DBB201E000237549734A9278D2B2934203D20A7812F0FF0FEFD16E4B9B7813F0FF0F0BD06C4B5E
:401D40009B78DBB26D4A127C934204D16C4C2046FFF7A8FC21460B7813F0FF0F00F017810B78644A13805160FFF7F6FB10BD00F0AFFA10BD13F0030317D0022B40F0098133
:401D80005C490B805A4B1B7903F07F0303EB43039A005C4B1A449278D2B25B4B1A7000225A704B60FFF7D8FB10BD524902230B80564B1A78D2B2544B1A7000225A704B60C5
:401DC000FFF7CAFB10BD4B4B01221A80504A5A60FFF7C2FB10BD474A01231380444B1B794C490B445360FFF7B7FB10BD404A5278013A0A2A00F2CF80DFE812F04C00CD00D7
:401E00009800CD000B00CD00CD00CD001300CD003000374B9B78DBB23F4A1370FFF75AFA10BD334B9B7803F0FF041BB1601EC0B2FFF7C0FC04B110B9002C40F0AE80344BFA
:401E40001B78DBB29C4206D0314B1C700120334B1870FFF771FDFFF73DFA10BDFFF7E8FE002800F09C80224A1379DBB21279D2B22B490A702B4AD25CD2B22649CB5CDBB225
:401E80009A4204D00122254B1A70FFF7A7FCFFF721FA10BD03F00303012B17D04BB1022B7FD1134B9B7813F0FF0F7CD1FFF76CFE10BD0F4B9B78DBB2012B76D1134A137808
:401EC00003F0FD031370FFF705FA10BD084B1B79DBB2012B6BD8064B98781B79DBB21249CA5C22EA0002CA54FFF7F4F910BD00BF0060004098A5FF1F302C0000142D000091
:401F0000A4A5FF1F18A5FF1FAC81FF1F94A5FF1F12A5FF1F8CA5FF1F93A5FF1F8FA5FF1F14A5FF1F10A5FF1F90A5FF1F03F00303012B17D04BB1022B3BD1224B9B7813F030
:401F4000FF0F38D1FFF7EEFD10BD1E4B9B78DBB2012B32D11C4A137843F002031370FFF7B9F910BD174B1B79DBB2012B27D8154B98781B79DBB21549CA5C22EA0002CA5454
:401F8000FFF7A8F910BD002010BD002010BD002010BD002010BD002010BD002010BD002010BD002010BD002010BD002010BD002010BD002010BD002010BD002010BD0020A7
:401FC00010BD00BF0060004094A5FF1F90A5FF1F044B1B7813F0800F01D0024B5B780020704700BF00600040024B1878C0F38010704700BF8F450040024A137843F0800339
:40200000137070477F640040024A137803F07F03137070477F640040014B1870704700BF8F640040014B1878704700BF6F640040014B1880704700BF5C680040014B18886E
:4020400080B270479C680040014B1880704700BF1C68004008B501E0FFF7F0FFFFF7E2FF10F0080FF8D108BD08B50920FFF7E0FF0920FFF7E9FF00F023F9064A137843F03A
:402080001003137000F020F9FFF7E4FF0120FFF7C3FF08BD9F64004008B5054B1B7823B9FFF7E2FF0122024B1A70FFF7A5FF08BDAE81FF1F014B1B681864704708ED00E0F7
:4020C0004001C0B2014B1870704700BF00E400E00122014B1A60704700E100E00122014B1A60704780E100E010B50446FFF7F6FF2046FFF7DFFF0020FFF7E2FFFFF7E8FFD5
:4021000010BD00BF024A137843F00103137070477C64004010B500F07F0400F0D1F8054A137843F00303137000F0CEF8024B1C7010BD00BF9C6400404C640040024B1878FC
:4021400000F07F00704700BF0C64004000F07F00014B1870704700BF0C64004000F07F00014B1870704700BF2C64004008B57820FFF7F4FF7F20FFF7E9FF7F20FFF7CAFFBF
:40218000FFF7C0FF08BD00BF08B5054B1B7823B9FFF7ECFF0122024B1A70FFF7B3FF08BDAF81FF1F024A137843F080031370704777650040024A137803F07F03137070476B
:4021C00077650040014B1870704700BF87650040014B1878704700BF67650040014B1880704700BF4C6A0040014B188880B270478C6A0040014B1880704700BF0C6A004084
:4022000008B501E0FFF7F0FFFFF7E2FF10F0080FF8D108BD08B53120FFF7E0FF3120FFF7E9FF00F04DF8064A137843F01003137000F04AF8FFF7E4FF0120FFF7C3FF08BD0B
:402240009765004008B5054B1B7823B9FFF7E2FF0122024B1A70FFF7A5FF08BDB081FF1F014B1B68D864704708ED00E04001C0B2014B1870704700BF03E400E00822014B56
:402280001A60704700E100E00822014B1A60704780E100E010B50446FFF7F6FF2046FFF7DFFF0720FFF7E2FFFFF7E8FF10BD00BF0230800803D000BF01380046FCD170475A
:4022C000EFF3108072B6704780F31088704700BF08B5124B1B7803F00303012B02D0022B04D00FE00D4B1B79DBB20CE00B4B1B7903F07F0303EB43039A00094B1A44937A27
:40230000DBB200E00023074A1268D35C022B02D1FEF714FE08BD002008BD00BF0060004018A5FF1F84A5FF1F81F0004102E000BF83F0004330B54FEA41044FEA430594EA76
:40234000050F08BF90EA020F1FBF54EA000C55EA020C7FEA645C7FEA655C00F0E2804FEA5454D4EB5555B8BF6D420CDD2C4480EA020281EA030382EA000083EA010180EAF0
:40238000020281EA0303362D88BF30BD11F0004F4FEA01314FF4801C4CEA113102D0404261EB410113F0004F4FEA03334CEA133302D0524263EB430394EA050F00F0A7803D
:4023C000A4F10104D5F1200E0DDB02FA0EFC22FA05F2801841F1000103FA0EF2801843FA05F359410EE0A5F120050EF1200E012A03FA0EFC28BF4CF0020C43FA05F3C018D9
:4024000051EBE37101F0004507D54FF0000EDCF1000C7EEB00006EEB0101B1F5801F1BD3B1F5001F0CD349085FEA30004FEA3C0C04F101044FEA445212F5800F80F09A8005
:40244000BCF1004F08BF5FEA500C50F1000041EB045141EA050130BD5FEA4C0C404141EB010111F4801FA4F10104E9D191F0000F04BF01460020B1FA81F308BF2033A3F145
:402480000B03B3F120020CDA0C3208DD02F1140CC2F10C0201FA0CF021FA02F10CE002F11402D8BFC2F1200C01FA02F120FA0CFCDCBF41EA0C019040E41AA2BF01EB0451A8
:4024C000294330BD6FEA04041F3C1CDA0C340EDC04F11404C4F1200220FA04F001FA02F340EA030021FA04F345EA030130BDC4F10C04C4F1200220FA02F001FA04F340EAA2
:402500000300294630BD21FA04F0294630BD94F0000F83F4801306BF81F480110134013D4EE77FEA645C18BF7FEA655C29D094EA050F08BF90EA020F05D054EA000C04BFD8
:402540001946104630BD91EA030F1EBF0021002030BD5FEA545C05D14000494128BF41F0004130BD14F580043CBF01F5801130BD01F0004545F0FE4141F470014FF00000B7
:4025800030BD7FEA645C1ABF194610467FEA655C1CBF0B46024650EA013406BF52EA033591EA030F41F4002130BD00BF90F0000F04BF0021704730B54FF4806404F1320441
:4025C0004FF000054FF0000150E700BF90F0000F04BF0021704730B54FF4806404F1320410F0004548BF40424FF000013EE700BF42004FEAE2014FEA31014FEA02701FBFBC
:4026000012F07F4393F07F4F81F06051704792F0000F14BF93F07F4F704730B54FF4607401F0004521F0004120E700BF50EA010208BF704730B54FF000050AE050EA0102EB
:4026400008BF704730B511F0004502D5404261EB41014FF4806404F132045FEA915C3FF4DCAE4FF003025FEADC0C18BF03325FEADC0C18BF033202EBDC02C2F1200300FA2C
:4026800003FC20FA02F001FA03FE40EA0E0021FA02F11444C1E600BF70B54FF0FF0C4CF4E06C1CEA11541DBF1CEA135594EA0C0F95EA0C0F00F0DEF82C4481EA030621EA77
:4026C0004C5123EA4C5350EA013518BF52EA033541F4801143F4801338D0A0FB02CE4FF00005E1FB02E506F00042E0FB03E54FF00006E1FB03569CF0000F18BF4EF0010E98
:40270000A4F1FF04B6F5007F64F5407404D25FEA4E0E6D4146EB060642EAC62141EA55514FEAC52040EA5E504FEACE2EB4F1FD0C88BFBCF5E06F1ED8BEF1004F08BF5FEA5C
:40274000500E50F1000041EB045170BD06F0004646EA010140EA020081EA0301B4EB5C04C2BFD4EB0C0541EA045170BD41F480114FF0000E013C00F3AB8014F1360FDEBFB1
:40278000002001F0004170BDC4F10004203C35DA0C341BDC04F11404C4F1200500FA05F320FA04F001FA05F240EA020001F0004221F0004110EBD37021FA04F642EB06012E
:4027C0005EEA430E08BF20EAD37070BDC4F10C04C4F1200500FA04F320FA05F001FA04F240EA020001F0004110EBD37041F100015EEA430E08BF20EAD37070BDC4F12005EC
:4028000000FA05F24EEA020E20FA04F301FA05F243EA020321FA04F001F0004121FA04F220EA020000EBD3705EEA430E08BF20EAD37070BD94F0000F0FD101F000464000DA
:4028400041EB010111F4801F08BF013CF7D041EA060195F0000F18BF704703F00046520043EB030313F4801F08BF013DF7D043EA0603704794EA0C0F0CEA135518BF95EAFC
:402880000C0F0CD050EA410618BF52EA4306D1D181EA030101F000414FF0000070BD50EA410606BF1046194652EA430619D094EA0C0F02D150EA013613D195EA0C0F05D1FB
:4028C00052EA03361CBF104619460AD181EA030101F0004141F0FE4141F470014FF0000070BD41F0FE4141F4780170BD70B54FF0FF0C4CF4E06C1CEA11541DBF1CEA1355DA
:4029000094EA0C0F95EA0C0F00F0A7F8A4EB050481EA030E52EA03354FEA013100F088804FEA03334FF0805545EA131343EA12634FEA022245EA111545EA10654FEA0026BB
:402940000EF000419D4208BF964244F1FD0404F5407402D25B084FEA3202B61A65EB03055B084FEA32024FF480104FF4002CB6EB020E75EB030E22BFB61A754640EA0C0015
:402980005B084FEA3202B6EB020E75EB030E22BFB61A754640EA5C005B084FEA3202B6EB020E75EB030E22BFB61A754640EA9C005B084FEA3202B6EB020E75EB030E22BF3C
:4029C000B61A754640EADC0055EA060E18D04FEA051545EA16754FEA06164FEAC30343EA52734FEAC2025FEA1C1CC0D111F4801F0BD141EA00014FF000004FF0004CB6E796
:402A000011F4801F04BF01430020B4F1FD0C88BFBCF5E06F3FF6AFAEB5EB030C04BFB6EB020C5FEA500C50F1000041EB045170BD0EF0004E4EEA113114EB5C04C2BFD4EB2A
:402A40000C0541EA045170BD41F480114FF0000E013C90E645EA060E8DE60CEA135594EA0C0F08BF95EA0C0F3FF43BAF94EA0C0F0AD150EA01347FF434AF95EA0C0F7FF461
:402A800025AF104619462CE795EA0C0F06D152EA03353FF4FDAE1046194622E750EA410618BF52EA43067FF4C5AE50EA41047FF40DAF52EA43057FF4EBAE12E74A0011D2D2
:402AC00012F5001211D20DD56FF47873B3EB62520ED44FEAC12343F0004343EA505323FA02F070474FF00000704750EA013002D14FF0FF3070474FF000007047014B186832
:402B0000704700BF5881FF1F0E4B70B51E460E4C0025E41AA410A54204D056F8253098470135F8E700F000F9084B094C1E46E41AA4100025A54204D056F825309847013584
:402B4000F8E770BD342D0000342D0000342D00003C2D000010B5431E0A44914204D011F8014B03F8014FF8E710BD03460244934202D003F8011BFAE7704700000000000071
:402B800000510040100020510040100040510040300000000140001000140140000800400140000A004C014000020050014020000D0A000030313233343536373839414292
:402BC000434445460000000001000000D02B000001000000142D0000000000000000000001000000E82B000001000000D02C000003000000142C0000000000000000000031
:402C0000000000000000000000000000102C0000020A000000008103080002000100820240000A000100030240000A0002030000040309042C034300790070007200650054
:402C4000730073002000530065006D00690063006F006E0064007500630074006F007200100355005300420055004100520054003803430044004300200043006F006D0072
:402C80006D0075006E00690063006100740069006F006E00200049006E007400650072006600610063006500260343004400430020004400610074006100200049006E00C8
:402CC00074006500720066006100630065000000090243000201018032090400000102020103052400100104240202052406000105240100010705810308000A090401006F
:402D0000020A0000040705820240000007050302400000001201000202000008B40432F20000010280014300F8B500BFF8BC08BC9E4670474D000000A1060000F8B500BFC1
:402D4000F8BC08BC9E46704729000000602D0000C880FF1F980000006824000000000000000000000000E02EC05D00001800000000366E0100C2010000000800C20100008A
:402D800000080000A120000000000200000000000000000000000000000000000000000000000000000000000000000000000000262D0000000000000000000000000000F5
:402DC000000000000000000000000000000000000000000000000000000000000000000000000000000000000000000000000000F880FF1F0000000000000000000000003D
:402E00000000000000000000000000000000000000000000000000000000000000000000000000000000000000000000000000000000000000000000000000000000000092
:402E40000000000000000000000000000000000000000000000000000000000000000000000000000000000000000000000000000000000000000000000000000000000052
:402E80000000000000000000000000000000000000000000000000000000000000000000000000000000000000000000000000000000000000000000000000000000000012
:402EC00000000000000000000000000000000000000000000000000000000000000000000000000000000000000000000000000000000000000000000000000000000000D2
:020000040003F7
:0200000480007A
:4000000001450040015200400264004002650040010101400203014001050140320601401907014002090140110C0140080D01403A0E0140190F01403014014018150140CB
:40004000321601401517014001190140084001400B41014004420140094301400244014001450140064701400348014003490140014C014005500140035101407E027C405B
:40008000870D8F0D850D870DE6058201EE029E01404549FF4AFF4BFF4F0150185A045D015F016040624064406540668068806A806C806E808E019201B601BE40C054C5EC00
:4000C000C720C823C9FFCAFFCBFFCD83CE03CF01D018D280D401D604D804DA04DB04DD11DF01E040E240E440E540E680E880EA80EC80EE8002020902194041014680490537
:400100004B404E02510152025945608071027280734084809E01C001C208D081D218D60BD801E608EA01E608EA01400449FF4AFF4BFF4C024EE052015A0C5B045D115F0152
:40014000624863A168F06AF06CF06EF047016F037F02AA08AE01D080DE10EA0418041A0128012A063001340236043E41405149FF4AFF4BFF4F01501858045A045C025F0151
:400180006040624064406540668068806A806C806E8092019E01B001BE01C051C5ECC602C807C9FFCAFFCBFFCD83CE03CF01D018D280D401D604D804DA04DB04DF01E04059
:4001C000E240E440E540E680E880EA80EC80EE800A080C020D8012081A8A1E804180458048024C024D044F0155805D045E805F01660274028242C292C402D018D218D6D012
:40020000D880405149FF4AFF4BFF4F0150185A045F016040624064406540668068806A806C806E809E01AE01B001BE01C041C5ECC602C807C9FFCAFFCBFFCD83CE03CF0114
:40024000D018D280D401D604D804DA04DB04DF01E040E240E440E540E680E880EA80EC80EE800D8017801E8041804580464048014D044F0155805D045E805F016601740177
:40028000764077808201C280C480D098D208D6D0D880404549FF4AFF4BFF4F0150185A045D015F016040624064406540668068806A806C806E808E019201B601BE40C0451B
:4002C000C5ECC720C823C9FFCAFFCBFFCD83CE03CF01D018D280D401D604D804DA04DB04DD11DF01E040E240E440E540E680E880EA80EC80EE8002020902194041024680D1
:4003000049054A024E02520259456201710272809E01C001C208D081D218D60BD801EE02EE02338835213B4081208380CCF0CE10E6A03204331036403704810197409D01A9
:40034000AF08CCF0E220EE40960897409F14A64086048740960897409F10A640AB04E650EA801108C408A9040B410E2086109701AB01C20E9F10AE40EE4083109F10E2205D
:40038000AF4000070A020E0710031A0300FF01AF0202000010100000000000004000000000000000C0000000000B0B0000000000004747000000000000000000000000007F
:4003C00000000000000000000000000000000000000000000000000000000000000000000000000000000000000000000000000000000000000000000000000000000000FD
:4004000000000000000000000000000000000000000000000000000000000000000000000000000000000000000000000000000000000000000000000000000000000000BC
:40044000000000000000000000000000000000000000000000000000000000000000000000000000000000000000000000000000000000000000000000000000000000007C
:40048000000000000000000000000000000000000000000000000000000000000000000000000000000000000000000000000000000000000000000000000000000000003C
:0200000490006A
:0400000000004005B7
:0200000490105A
:04000000BC90ACAF55
:0200000490303A
:02000000A8371F
:0200000490402A
:4000000000000000000000000000000000000000000000000000000000000000000000000000000000000000000000000000000000000000000000000000000000000000C0
:400040000000000000000000000000000000000000000000000000000000000000000000000000000000000000000000000000000000000000000000000000000000000080
:400080000000000000000000000000000000000000000000000000000000000000000000000000000000000000000000000000000000000000000000000000000000000040
:4000C0000000000000000000000000000000000000000000000000000000000000000000000000000000000000000000000000000000000000000000000000000000000000
:0200000490501A
:0C00000000012E12306900012E24D8A04F
:00000001FF