:400000000080002011000000090600000906000008B5044B1A6803F53F5302331A6000F0FBFA00BFFA46004010B5054C237833B9044B13B10448AFF300800123237010BD64
:400040006081FF1F0000000078220000084B10B51BB108490848AFF300800848036803B910BD074B002BFBD0BDE81040184700BF000000006481FF1F78220000C880FF1F9E
:4000800000000000064B1B78064B1B781BB90022044B5A7070470122024B5A70704700BF6F6400407C81FF1F08B501F0EBFF054B1B78002000F002FD0022034B5A7002F01E
:4000C00029F808BD656500407C81FF1F10B53E4B1B783E4B5A683E49895C3E4801705B78002B58D13C4B1B689A426BDA374B9B685BB9012000F0E2FC344A51689268374BD9
:4001000003EB01133121995431E013F0010F0BD0002000F0D3FC2D4A516892682F4B03EB01133021995422E0284BDB68C3F10603194111F0010F0BD0012000F0BFFC234AC8
:4001400051689268254B03EB0113312199540AE0002000F0B3FC1D4A516892681F4B03EB011330219954194AD3680133D36040F2EF1000F0ADFA154A9368013393600F2B26
:4001800020DD1346526801325A600020D860986000F094FC10BD012B14D101F037FF013000D57F30C011C0EB401300EB8300C400A4B2204601F07AFF601E80B201F082FF6F
:4001C00001F0A8FF10BD00BF676400407C81FF1FA081FF1F9883FF1F9483FF1F9C83FF1F08B5084B1B7863B9342000F01BFB332000F024FB00F04AFB024B01221A700222FD
:400200005A7008BD7C81FF1F08B5094B1B7873B140F23E3000F006FB40F23D3000F00EFB00F034FB024B00221A7002225A7008BD7C81FF1F10B562B6544801F093FF5448A5
:4002400000F0CEFA534800F085FB534800F0AAFB00F0FEFB322000F0C7FB312000F0D0FB4E4800F01DFC01F0F7FE4D4B1878012100F02EFD00F00AFB00F02EFFB0F5614F41
:4002800002D10122474B5A6100F060FD20B100F057FD08B100F078FE00F0EEFE70B1424800F002FF414B186000F0F2FE0028FBD000F0CAFE3B4B00229A615A6000F0E8FE40
:4002C00028B3384B9A69394B1B689A421FDA354A526893421BD10DE000F0DAFE0028FBD0304B9A69324B03EB0213185D00F098FE013400E000240F2CEEDD2A4A9369013343
:40030000936100F0C5FE0028FBD000F09DFE254B5B78012B27D013B1022B12D0AAE7012000F0C2FA00F0CCFAB0FA80F0400900F0E3FA00F0C5FAB0FA80F0400900F0C8FA57
:4003400098E7012000F0D8FA00F0E2FAB0FA80F0400900F0A9FA00F0DBFAB0FA80F0400900F0B6FA86E7012000F0B2FA00F0BCFAB0FA80F0400900F097FA00F0B5FAB0FA94
:4003800080F0400900F0B8FA74E700BFA900000085000000E101000009020000CD000000FDA2FF1F7C81FF1FA081FF1F9483FF1F9C83FF1FFEE700BFF0B40022174611E09F
:4003C00050F82760F3B226F0FF0608E001EB420511F812406D78A5550132013BDBB2002BF4D101371E2FEBD9F0BC7047064B1B78DBB203F00701054A11701B09013213706B
:400400004422034B1A707047CF0100496E5800407658004008B50A46002101F024FF08BD38B5EF22284B1A80182328490B7002310A80274A137040F23F1102321180023235
:4004400013700622234B1A705222A3F580731A70214B1B78DBB2214A13704FF4E162204B1A8041F25122023B1A80002419250CE01C4B1B7803F0010343EA440404F003041F
:400480004FF4F07001F07CFE013D0DB1032CEFD115B90320FFF78EFF134A4FF48073138007231370002311490B7048200231087013700532137002220D4B1A700D4A1378CC
:4004C00043F00703137038BD804000408240004086400040004300400F010049A14600402242004025420040044000400640004001400040A243004008B501F0A9FE08BD27
:4005000038B572B62E4A137843F00403137000240CE02C4D630019194A0011462A44084691882858FFF776FF0134E4B2062CF0D925494FF09040FFF73FFF244A137843F0C4
:40054000020313701032137843F002031370204C237843F040032370A2F58632513A137843F01003137008221A491B48FFF7C4FF08221A491A48FFF7BFFF0A2219491A48F1
:40058000FFF7BAFF082219491948FFF7B5FF082218491948FFF7B0FF184A137843F008031370174D01232B70FFF73AFF81232B70FFF71CFF0E2221461248FFF79DFF38BD9C
:4005C000E84600407C2200007C00004803500140A04300409803004802510040A0030048C2510040A8030048F0510040B403004812510040BC03004832510040224300403B
:4006000000480040B043004008B501F0F5FD03680C2B00D1FEE7FEE708B5104E104D16E029686B68AC68002204E051F8040B43F8040B0432A242F8D1E868002203E000213B
:4006400043F8041B04328242F9D11035013E002EE6D101F0D7FDFFF7EDFDFEE7010000004424000008B5104A104B1A60104A136843F40073136000230AE0032B03D80D4AB5
:4006800052F8231000E00C490C4A42F8231001332F2BF2D90A4B1A780A4B1A70074A0A4B1A60FFF72DFF08BD0004FA050CED00E014ED00E000000000090600000080FF1F35
:4006C000BC760040C080FF1F08ED00E001BE704708B5034B1B7A00FB03F001F051FD08BDCC80FF1F70B504460E46074B1D681F2802D90020FFF7EAFF04F01F04103455F880
:40070000240045F8246070BD08ED00E038B504460D46072902D90020FFF7D8FF1F2C02D90020FFF7D3FF04F01F0000F1604000F564406D01EDB2057038BD00BF134B1B78DE
:40074000DBB20360124A127843EA02230360114A127843EA024303600F4A127843EA026303600E4B1B78DBB243600D4A127843EA022343600B4A127843EA024343600A4A22
:40078000127843EA02634360704700BF0301004904010049EC4600400201004901010049000100490501004906010049014B1B681865704708ED00E04001C0B2014B187018
:4007C000704700BF04E400E01022014B1A60704700E100E01022014B1A60704780E100E010B50446FFF7F6FF2046FFF7DFFF0720FFF7E2FFFFF7E8FF10BD00BF024A1378E9
:4008000043F08003137070477F640040014B1870704700BF8F640040014B1878704700BF6F640040014B1880704700BF5C680040014B188880B270479C680040014B188068
:40084000704700BF1C68004008B501E0FFF7F0FFFFF7E2FF10F0080FF8D108BD08B50920FFF7E0FF0920FFF7E9FF01F091FC064A137843F01003137001F08EFCFFF7E4FF07
:400880000120FFF7C3FF08BD9F64004008B5054B1B7823B9FFF7E2FF0122024B1A70FFF7ADFF08BD9881FF1F044A137803F0FB03800000F0040018431070704730510040DB
:4008C000024B1878C0F38000704700BF31510040044A137803F0FE0300F0010018431070704700BF30510040024B187800F00100704700BF31510040044A137803F0FD030E
:40090000400000F0020018431070704730510040024B1878C0F34000704700BF31510040014B1B689864704708ED00E04001C0B2014B1870704700BF02E400E00422014B9E
:400940001A60704700E100E00422014B1A60704780E100E010B50446FFF7F6FF2046FFF7DFFF0720FFF7E2FFFFF7E8FF10BD00BF014B1B685864704708ED00E04001C0B23C
:40098000014B1870704700BF01E400E00222014B1A60704700E100E00222014B1A60704780E100E010B50446FFF7F6FF2046FFF7DFFF0720FFF7E2FFFFF7E8FF10BD00BF49
:4009C000024A137843F080031370704777640040014B1870704700BF87640040014B1878704700BF67640040014B1880704700BF4C680040014B188880B270478C680040EC
:400A0000014B1880704700BF0C68004008B501E0FFF7F0FFFFF7E2FF10F0080FF8D108BD08B50920FFF7E0FF0920FFF7E9FF01F0AFFB064A137843F01003137001F0ACFB10
:400A4000FFF7E4FF0120FFF7C3FF08BD9764004008B5054B1B7823B9FFF7E2FF0122024B1A70FFF7ADFF08BD9981FF1F014B1B685865704708ED00E04001C0B2014B187039
:400A8000704700BF05E400E02022014B1A60704700E100E02022014B1A60704780E100E010B50446FFF7F6FF2046FFF7DFFF0020FFF7E2FFFFF7E8FF10BD00BF044A13780A
:400AC00003F0BF03800100F0400018431070704700510040F8B501F05BFB0546404A137843F0010313701032137843F00103137001273C4B1F700226943B1E7002F5E252EA
:400B00001B32137803F07F0313700020FFF7E0FD354C237803F0F9032370344A137803F0DF03137023783B4323703846FFF7D0FD2820FFF7CDFD2E4B1A7802F07F021A70F6
:400B40001A7802F0BF021A702378334323703046FFF7BEFD237843F0040323700023254A137001321370284601F016FB07211720FFF7CCFD20491720FFF7B4FD0721182073
:400B8000FFF7C4FD1D491820FFF7ACFD07211520FFF7BCFD1A491520FFF7A4FD07210620FFF7B4FD17490620FFF79CFD07210846FFF7ACFD14490720FFF794FD072108208C
:400BC000FFF7A4FD11490820FFF78CFD07210C20FFF79CFD0E490C20FFF784FDF8BD00BFA54300409D6000409443004012600040F85100408460004071160000591400003D
:400C00006D160000CD150000FD150000311600007916000008B5224B18700023214A1370214A1370214A1370214A1370214A1370214A1370214A1370214B4FF400021A60E5
:400C40004FF080721A604FF400121A6040221A6080221A604FF480721A6011B1012906D00BE0184A137803F0FE0313700AE0154A137843F00103137004E0124A137843F0B6
:400C8000010313700322104B1A708022203B1A70012001F075FA04220C4B1A7008BD00BFFDA2FF1FF4A2FF1F77A3FF1FFAA2FF1FFCA2FF1F7BA3FF1F7CA3FF1F7AA3FF1F3D
:400CC00000E100E009600040286000401260004038B504460D46064B1B7823B9FFF7FAFE0122034B1A7029462046FFF793FF38BD9A81FF1F00230A4A13700A4A13700A4A2D
:400D000013700A4A13700A4A13700A4A13700A4A13700322094B1A708022203B1A707047F4A2FF1F77A3FF1FFAA2FF1FFCA2FF1F7BA3FF1F7CA3FF1F7AA3FF1F28600040B5
:400D4000014B1878704700BFFAA2FF1F064B1B7813F0FF0F05D0044B1878C0B200221A7070470020704700BF77A3FF1F00EB40008300024A13445878704700BF00A3FF1FC3
:400D8000431EDBB2072B0BD8064B00011A18185C00F00F00537843EA0020023880B2704700207047FC5F0040431EDBB2072B3CD8F0B4074600EB4004A3001C4C2344DB8863
:400DC0009BB2C3F500739A4208D900EB400293002344DA8892B2C2F5007292B200EB4004A300124C2344DB7843EA1223104D04012E192B55D3B2737039B909E0CE5C3D0164
:400E00000C4C665501339BB200E000239A42F5D8420002449300054A134400225A705A79D2B20001044B1A54F0BC704700A3FF1FFC5F004078600040FE5F0040431EDBB24E
:400E4000072B0BD8420002449300054A134400225A705A79D2B20001024B1A54704700BF00A3FF1FFE5F004070B5D9B1054614460E46C8B1082819D8FFF782FFA04203D259
:400E80002846FFF77DFF0446002305E02901094A525CF25401339BB2A342F7D32846FFF7CDFF04E0002402E0002400E00024204670BD00BF7860004010B4FF2400230EE0BB
:400EC000094AD25C02EB42029100084A11448A7AD2B2824201D11C4602230133DBB2012BEED9204610BC7047E4A2FF1F00A3FF1F10B5204C2079FFF7DFFF237813F0800F96
:400F00000ED06378DBB2212B2FD11B4B07221A80C0EBC000194A1044586000F00BFB10BD144B5B78DBB2202B02D0222B10D01EE0114A07231380C0EBC00310490B44536071
:400F40000F4A135C43F00103135400F01BFB10BD084B9B780B4A22F81030094A135C43F00203135400F0A4F910BD002010BD002010BD00BF0060004080A3FF1FDC80FF1F74
:400F8000DCA2FF1FECA2FF1F10B500241F4B1C701F4B1C705C700AE01E4B185DC0B2431EDBB2072B01D8FFF749FF0134E4B2012CF2D9194B1B7813F0FF0F1AD0154B1B782F
:400FC00013F0FF0F17D0154B1B7813F0FF0F14D0114B1B78DBB2082B11D80E4B1B78DBB2082B0ED80D4B1B78DBB2082B0BD8002010BD012010BD012010BD012010BD012081
:4010000010BD012010BD012010BD00BF9B81FF1FDCA2FF1FE8A2FF1FE0A2FF1FE4A2FF1F00B583B002A901F8010D054B1B78054AD05C0122FFF7B8FE03B05DF804FB00BFF9
:401040009B81FF1FE0A2FF1F00B583B0074B1B88ADF80430064B1B78064AD05C022201A9FFF7A2FE03B05DF804FB00BFA82200009B81FF1FE0A2FF1F08B5034B1B78034AC7
:40108000D05CFFF773FE08BD9B81FF1FE8A2FF1F08B5034B1B78034AD05CFFF767FE08BD9B81FF1FE0A2FF1F08B5084B1B78084AD35CDBB203EB43018A0006490A44128940
:4010C00092B201461846FFF7CFFE08BD9B81FF1FE8A2FF1F00A3FF1F10B4094B1B78094CC3EBC303E118C8788A7842EA00204A7842EA0022E05C40EA022010BC704700BF07
:401100009B81FF1FDC80FF1FC37803F0030390F9020000280FDA032B06D002F001030B48C15442F001020EE0C2F380030848C15442F0040207E0032B05D0C2F340030548A2
:40114000C15442F002021046704700BFE0A2FF1FE4A2FF1FE8A2FF1F1D4B19781D4A13889BB20B449BB2138000220FE01A494B681B78DBB2194883544B6801334B600132B1
:40118000D2B20B889BB2013B9BB20B80124B1B889BB20BB1072AE9D90D4B1B78DBB2082B00D05AB10E490B7883F080030B700F210C4B197002210C4B197004E0022309497C
:4011C0000B7009490B70094B1A70014B1A7070477AA3FF1F70A3FF1F80A3FF1F00600040FBA2FF1F7DA3FF1FF4A2FF1F76A3FF1F0222074B1A708022064B1A700F22064B0C
:401200001A700023054A1370054A137001207047F4A2FF1FFBA2FF1F7DA3FF1F7AA3FF1F76A3FF1F08B5FFF797FF08BD10B4194B197801F00F010239C9B2174A13889BB29F
:401240000B449BB21380002011E0144A5468144B1B5CDBB223705368013353600130C0B20139C9B213889BB2013B9BB213800B4B1B889BB20BB10029E7D10A4B19700A4A0B
:40128000137883F0800313700B22084B1A7010BC704700BF2960004070A3FF1F80A3FF1F0060004076A3FF1FFBA2FF1F7DA3FF1F0623064A1370064A13708022054B1A7088
:4012C0000022054B1A700120704700BFF4A2FF1F7DA3FF1FFBA2FF1F76A3FF1F064B9B6843B1054B9A6810709A6804490988518000229A60704700BF80A3FF1F70A3FF1FA8
:4013000008B5134B1A78D2B21A701B78DBB213F0800F02D00F4A137008BD0220FFF7DEFF0D4B1B7803F06003202B05D0402B06D043B900F091FC06E000F032FF03E000F0E3
:4013400035FE00E0002010B90322024B1A7008BD286000407DA3FF1F0060004008B5094B1978094A13889BB20B449BB213800022064B1A700120FFF7B1FF0322044B1A703C
:4013800008BD00BF7AA3FF1F70A3FF1FF4A2FF1F7DA3FF1F08B50B4B1B78DBB2042B06D0062B07D0022B0BD1FFF7D8FF08BDFFF73DFF08BD0320FFF791FF0322024B1A70D4
:4013C00008BD00BFF4A2FF1F7DA3FF1F08B50022044B1A700120FFF781FF0322024B1A7008BD00BFF4A2FF1F7DA3FF1F08B50B4B1B7813F0FF0F07D0084A137843F0800395
:4014000007490B70002313700022064B1A700120FFF764FF0322044B1A7008BD7BA3FF1F08600040F4A2FF1F7DA3FF1F08B5094B1B78DBB2042B06D0062B07D0022B07D1E8
:40144000FFF7F0FE08BDFFF7C1FF08BDFFF7CEFF08BD00BFF4A2FF1F08B5284B1B78DBB213F0100F48D013F0800F0CD003F00F03012B16D1FFF744FF214B1B7813F0800F73
:4014800011D1012312E013F0400F03D0FFF7CEFF01230BE013F0200F07D0FFF77BFF012304E0002302E0002300E0002323B3134B1B7813F0800F1FD1124B1B78124A127872
:4014C0001343124A13701278D2B2934214D10C4B1B78DBB2094A127812F0800F07D1084B1B78DBB2054A1370137803F00F03044A1278D2B29342EAD108BD00BF2860004025
:401500007DA3FF1FFBA2FF1F76A3FF1F296000400022064B1A80064B9B682BB1044A916800230B7092685380704700BF70A3FF1F80A3FF1F08B50F4B1B889BB213B9FFF712
:4015400057FE15E002220C4B1A7000220B4B1A70FFF7DEFF0A4AD179937943EA0123054A128892B2934201D2024A1380FFF7F4FD012008BD80A3FF1FF4A2FF1FFBA2FF1F1B
:401580000060004008B504220B4B1A7080220B4B1A70FFF7BDFF0A4AD179937943EA0123084A128892B2934201D2064A13800B22054B1A70012008BDF4A2FF1FFBA2FF1F82
:4015C0000060004080A3FF1F7DA3FF1F0122094B1A700F3B9B7C084B1B7B03F00303934204D0054AD37B83F08003D3730122024B5A7370470B60004000A3FF1F02220A4B2D
:401600001A700F3B93F82230084B1B7E03F00303012B04D0054AD37E83F08003D3760122024B5A76704700BF0B60004000A3FF1F04220C4B1A700F3B93F832300A4B93F8F5
:40164000243003F00303012B06D0074A92F8273083F0800382F827300122034B83F82520704700BF0B60004000A3FF1F704700BF08B5FFF73FFB08BD08B500F0A3FC08BDD6
:4016800070B588B0054603AC174E0FCE0FC43368237035B322232B7003236B7001A8FFF74DF8002402231AE008AA224412F81C2C08A901EB121111F8141CE954581C00216B
:4016C0002954981C02F00F0208AE324412F8142C2A54DA1CA9540134E4B20433DBB2212BE2D908B070BD00BFAC22000010B401233EE019461A010C242148845403EB4300A5
:40170000820020480244527912F0FF0F13D003EB430082001B480244127912F0800F04D01801194A024494700AE01801164A02440820907004E01801134A02448020907098
:401740004800084482000F480244D488E4B208010B4901448C71D088C0F30720C871D088C0B20871D288C2F307224A710133DBB2082BBED9FF22054B1A7010BC704700BFBC
:401780007060004000A3FF1FFC5F00400A600040074B1A78074B03EBC2035B681A7C824204D9C000103018444068704700207047FDA2FF1FC0220000F8B5404B1B7813F031
:4017C000FF0F79D03D4B18780138C0B2FFF7E0FF047AC2683A4B1878C0B200236AE01178884264D13749095CC9B25578A9425ED1917801F07F01D67806F00306DFF8C8E049
:401800004D000D44AF000EEB07054FF0000C85F803C092F802C085F804C092F803C00EF807C097882F8192F90250002D0DDA012E01D1072700E00D274E000E44B500224E5C
:4018400035446F7101266E700CE0012E01D1052700E009274E000E44B5001B4E35446F7100266E70DFF868E00F010EEB07060125B57001FA05F529448D00134929440D89F8
:40188000C5F307250EF807500D89EDB27570CE88F6B20E4D3D44AE71CE88C6F30726EE71CE88F6B22E71C988C1F30721697108320133DBB2A34292D3F8BD00BFFAA2FF1F22
:4018C000FCA2FF1F74A3FF1F00A3FF1F70600040FC5F0040034B1A78034B03EBC2035868704700BFFDA2FF1FC022000008B5084B18780138C0B2FFF74BFF30B14268127934
:40190000023200EBC203586808BD002008BD00BFFAA2FF1F2DE9F047002310E0724D5900CA189600AC190022AA55A270E2702281A272627034462C4462710133DBB2082B6C
:40194000ECD940B90AE000226849CA546849CA540133DBB200E00023012BF4D9654B1B7813F0FF0F00F0BD80624B18780138C0B2FFF70EFF80464368DB7913F0400F05D0EA
:401980005D4A137843F00103137004E05A4A137803F0FE03137098F808704FF0000A01266FE0D8F80C50002467E0AB7803F07F039E425FD1314606EB460083004A480344A1
:4019C0001B899BB2A888834206D206EB460E4FEA8E03454A134418812B784448C35CDBB26878834246D195F802C0DFF8FCE04B000B4498000EEB000383F804C0EB780EF82C
:401A00000030EB7803F0030395F90200002813DA012B02D14FF0070901E04FF00D09DFF8C8E04B0003EB010C4FEA8C00704480F805900121417012E0012B02D14FF0050995
:401A400001E04FF00909DFF8A0E04B0003EB010C4FEA8C00704480F8059000214170AB790A2B01D0022B05D1524631462846FFF74BFB824608350134E4B2BC4295D30136EC
:401A8000F6B2082E8DD9D8F80C0000220CE0837803F07F0310F8084B03EB43039900124B19448C720132D2B2BA42F0D3FFF71EFF124B1860002301210FE00B4D4A0050180C
:401AC00084002C44E380228992B213449BB203F0010213449BB20131C9B20829EDD9FFF705FEBDE8F08700BF00A3FF1F74A3FF1FF8A2FF1FFAA2FF1F7CA3FF1F6CA3FF1F18
:401B000008B5154B1B7903F07F035A1ED2B2072A20D8590019448A0010490A44917841F0010191700021D170517841F002015170127912F0800F05D01B01094A1A448D23A8
:401B4000937004E01B01064A1A4489239370FFF7AFFB08BD002008BD0060004000A3FF1FFC5F0040264B1B7903F07F035A1ED2B2072A43D810B5590019448A0021490A4440
:401B8000917801F0FE0191700021D17019017F241D484454517801F0FD015170127912F0800F14D003EB43018A0016490A445278D2B2012A05D11B0102461A440C239370EA
:401BC00019E01B01104A1A440D23937013E003EB43018A000B490A445278D2B2012A05D11B01094A1A440823937004E01B01064A1A4409239370FFF75BFB10BD002070477D
:401C00000060004000A3FF1FFC5F004010B50E4B1C79E4B20D4B18780138C0B2FFF7B8FD43681B799C4201D9022C0AD8084A135DDBB208490B55044B9B78DBB213550120A2
:401C400010BD002010BD00BF00600040FAA2FF1F74A3FF1FF8A2FF1F10B59C4B1B78DBB200219B4A118013F0800F00F0AD80974A5278D2B20A2A00F27481DFE812F0690016
:401C8000720172017201720172010B007201920072019A008D4BDB78DBB2012B09D1FFF719FE42688A4B5A6012221A80FFF742FC10BD864BDB78DBB2022B13D1834B987855
:401CC000FFF766FD002800F04E814268804B5A605A68D1785A68927842EA01221A80FFF729FC10BD794BDB78DBB2032B05D02CE00A7811440133DBB201E000237549734A03
:401D00009278D2B2934203D20A7812F0FF0FEFD16E4B9B7813F0FF0F0BD06C4B9B78DBB26D4A127C934204D16C4C2046FFF7A8FC21460B7813F0FF0F00F017810B78644AAF
:401D400013805160FFF7F6FB10BD00F029FA10BD13F0030317D0022B40F009815C490B805A4B1B7903F07F0303EB43039A005C4B1A449278D2B25B4B1A7000225A704B60AE
:401D8000FFF7D8FB10BD524902230B80564B1A78D2B2544B1A7000225A704B60FFF7CAFB10BD4B4B01221A80504A5A60FFF7C2FB10BD474A01231380444B1B794C490B44CD
:401DC0005360FFF7B7FB10BD404A5278013A0A2A00F2CF80DFE812F04C00CD009800CD000B00CD00CD00CD001300CD003000374B9B78DBB23F4A1370FFF75AFA10BD334B2B
:401E00009B7803F0FF041BB1601EC0B2FFF7C0FC04B110B9002C40F0AE80344B1B78DBB29C4206D0314B1C700120334B1870FFF771FDFFF73DFA10BDFFF7E8FE002800F04F
:401E40009C80224A1379DBB21279D2B22B490A702B4AD25CD2B22649CB5CDBB29A4204D00122254B1A70FFF7A7FCFFF721FA10BD03F00303012B17D04BB1022B7FD1134B53
:401E80009B7813F0FF0F7CD1FFF76CFE10BD0F4B9B78DBB2012B76D1134A137803F0FD031370FFF705FA10BD084B1B79DBB2012B6BD8064B98781B79DBB21249CA5C22EA05
:401EC0000002CA54FFF7F4F910BD00BF0060004080A3FF1F282300000C2400008CA3FF1F00A3FF1F9C81FF1F7CA3FF1FFAA2FF1F74A3FF1F7BA3FF1F77A3FF1FFCA2FF1F52
:401F0000F8A2FF1F78A3FF1F03F00303012B17D04BB1022B3BD1224B9B7813F0FF0F38D1FFF7EEFD10BD1E4B9B78DBB2012B32D11C4A137843F002031370FFF7B9F910BDCE
:401F4000174B1B79DBB2012B27D8154B98781B79DBB21549CA5C22EA0002CA54FFF7A8F910BD002010BD002010BD002010BD002010BD002010BD002010BD002010BD002073
:401F800010BD002010BD002010BD002010BD002010BD002010BD002010BD002010BD00BF006000407CA3FF1F78A3FF1F044B1B7813F0800F01D0024B5B780020704700BF09
:401FC00000600040024B1878C0F38010704700BF8F450040024A137843F00103137070477C64004010B500F07F0400F0D1F8054A137843F00303137000F0CEF8024B1C7019
:4020000010BD00BF9C6400404C640040024B187800F07F00704700BF0C64004000F07F00014B1870704700BF0C64004000F07F00014B1870704700BF2C64004008B578202B
:40204000FFF7F4FF7F20FFF7E9FF7F20FFF7CAFFFFF7C0FF08BD00BF08B5054B1B7823B9FFF7ECFF0122024B1A70FFF7B3FF08BD9E81FF1F024A137843F08003137070479B
:4020800075650040024A137803F07F031370704775650040014B1870704700BF85650040014B1878704700BF65650040014B1880704700BF486A0040014B188880B2704775
:4020C000886A0040014B1880704700BF086A004008B501E0FFF7F0FFFFF7E2FF10F0080FF8D108BD08B50920FFF7E0FF0920FFF7E9FF00F04DF8064A137843F01003137008
:4021000000F04AF8FFF7E4FF0120FFF7C3FF08BD9565004008B5054B1B7823B9FFF7E2FF0122024B1A70FFF7A5FF08BD9F81FF1F014B1B68D864704708ED00E04001C0B288
:40214000014B1870704700BF03E400E00822014B1A60704700E100E00822014B1A60704780E100E010B50446FFF7F6FF2046FFF7DFFF0720FFF7E2FFFFF7E8FF10BD00BF63
:402180000230800803D000BF01380046FCD17047EFF3108072B6704780F31088704700BF08B5124B1B7803F00303012B02D0022B04D00FE00D4B1B79DBB20CE00B4B1B791B
:4021C00003F07F0303EB43039A00094B1A44937ADBB200E00023074A1268D35C022B02D1FEF786FE08BD002008BD00BF0060004000A3FF1F6CA3FF1F014B1868704700BFA1
:402200005881FF1F0E4B70B51E460E4C0025E41AA410A54204D056F8253098470135F8E700F0FEF8084B094C1E46E41AA4100025A54204D056F8253098470135F8E770BDFA
:402240002C2400002C2400002C2400003424000010B5431E0A44914204D011F8014B03F8014FF8E710BD03460244934202D003F8011BFAE770470000000000002051004019
:40228000100040510040300000000140001000140140000800400140000A004C0140000200500140200000000D0A00003031323334353637383941424344454600000000DB
:4022C00001000000C8220000010000000C240000000000000000000001000000E022000001000000C8230000030000000C23000000000000000000000000000000000000A1
:402300000000000008230000020A000000008103080002000100820240000A000100030240000A0002030000040309042C0343007900700072006500730073002000530015
:4023400065006D00690063006F006E0064007500630074006F007200100355005300420055004100520054003803430044004300200043006F006D006D0075006E0069001B
:4023800063006100740069006F006E00200049006E007400650072006600610063006500260343004400430020004400610074006100200049006E007400650072006600D9
:4023C0006100630065000000090243000201018032090400000102020103052400100104240202052406000105240100010705810308000A09040100020A0000040705828B
:402400000240000007050302400000001201000202000008B40432F20000010280014300F8B500BFF8BC08BC9E4670474D00000065060000F8B500BFF8BC08BC9E46704791
:402440002900000058240000C880FF1F980000005022000000000000000000000000E02EC05D00001800000000366E0100C2010000000800C201000000080000A120000008
:40248000000002000000000000000000000000000000000000000000000000000000000000000000000000001E2400000000000000000000000000000000000000000000D8
:4024C00000000000000000000000000000000000000000000000000000000000000000000000000000000000F880FF1F000000000000000000000000000000000000000046
:40250000000000000000000000000000000000000000000000000000000000000000000000000000000000000000000000000000000000000000000000000000000000009B
:40254000000000000000000000000000000000000000000000000000000000000000000000000000000000000000000000000000000000000000000000000000000000005B
:40258000000000000000000000000000000000000000000000000000000000000000000000000000000000000000000000000000000000000000000000000000000000001B
:4025C00000000000000000000000000000000000000000000000000000000000000000000000000000000000000000000000000000000000000000000000000000000000DB
:020000040003F7
:0200000480007A
:40000000014500400152004002640040026500400101014002030140010501403006014016070140010B0140100C0140070D01403C0E01401C0F01403214014018150140CA
:40004000301601401717014001190140084001400B41014006420140064301400344014002460140044701400748014003490140024C014005500140035101407E027C4056
:40008000870D8F0D850D870DE208EA04EE02EA01404549FF4AFF4BFF4F0150185A045F016040624064406540668068806A806C806E808E019201B601BE40C054C5ECC720C1
:4000C000C823C9FFCAFFCBFFCD83CE03CF01D018D280D401D604D804DA04DB04DF01E040E240E440E540E680E880EA80EC80EE800202090219404101468049054B404E0231
:4001000051015202594563807102728073408340C001C208D081D218D60BD801EA01400449FF4AFF4BFF4C024EE052015A0C5B045F01624863A168F06AF06CF06EF04701DD
:400140006F037F02A804AE01D080DE100C010E04140416033002340436013E50405149FF4AFF4BFF4F01501858045A045C025D015F016040624064406540668068806A8037
:400180006C806E8092019E01B001BE01C051C5ECC602C807C9FFCAFFCBFFCD83CE03CF01D018D280D401D604D804DA04DB04DD11DF01E040E240E440E540E680E880EA800B
:4001C000EC80EE8003020B200C020D8018041A021B021E804180458048024C024D044F0155805D045E805F01678074028750C001C294D018D218D6D0D880E602405149FF58
:400200004AFF4BFF4F0150185A045D015F016040624064406540668068806A806C806E809E01AE01B001BE01C041C5ECC602C807C9FFCAFFCBFFCD83CE03CF01D018D280AD
:40024000D401D604D804DA04DB04DD11DF01E040E240E440E540E680E880EA80EC80EE800D8017801E8041804580464048014D044F0155805D045E805F016780740176408D
:4002800077808740C280C480D098D208D6D0D880404549FF4AFF4BFF4F0150185A045F016040624064406540668068806A806C806E808E019201B601BE40C054C5ECC72044
:4002C000C823C9FFCAFFCBFFCD83CE03CF01D018D280D401D604D804DA04DB04DF01E040E240E440E540E680E880EA80EC80EE800202090219404101468049054B404E022F
:4003000051015202594560407102728073408040C001C208D081D218D60BD801EE06EE063388360837103B808740CCF0CE10E2103008331035083640A608A780AB10AF08D6
:40034000CCF0EA20EE409D089F10A648A780A808EA8083109D089F10A648A780E22010108410C4089610AA100B420E109610C20E8380A608A780A908AE40E620EE608608EE
:40038000A608E210AB01AF4000070A010E0710031A0300FF01AF0202006060000000000010000000000000004000000000000000C0000000000B0B00000000000007070004
:4003C00000000000000000000000000000000000000000000000000000000000000000000000000000000000000000000000000000000000000000000000000000000000FD
:4004000000000000000000000000000000000000000000000000000000000000000000000000000000000000000000000000000000000000000000000000000000000000BC
:40044000000000000000000000000000000000000000000000000000000000000000000000000000000000000000000000000000000000000000000000000000000000007C
:40048000000000000000000000000000000000000000000000000000000000000000000000000000000000000000000000000000000000000000000000000000000000003C
:0200000490006A
:0400000000004005B7
:0200000490105A
:04000000BC90ACAF55
:0200000490303A
:020000000E33BD
:0200000490402A
:4000000000000000000000000000000000000000000000000000000000000000000000000000000000000000000000000000000000000000000000000000000000000000C0
:400040000000000000000000000000000000000000000000000000000000000000000000000000000000000000000000000000000000000000000000000000000000000080
:400080000000000000000000000000000000000000000000000000000000000000000000000000000000000000000000000000000000000000000000000000000000000040
:4000C0000000000000000000000000000000000000000000000000000000000000000000000000000000000000000000000000000000000000000000000000000000000000
:0200000490501A
:0C00000000012E12306900012E213E9CF0
:00000001FF