:400000000080002011000000A5050000A505000008B5044B1A6803F53F5302331A6000F0C9FA00BFFA46004010B5054C237833B9044B13B10448AFF300800123237010BD60
:400040006081FF1F0000000008210000084B10B51BB108490848AFF300800848036803B910BD074B002BFBD0BDE81040184700BF000000006481FF1F08210000C880FF1F80
:4000800000000000064B1B78064B1B781BB90022044B5A7070470122024B5A70704700BF616400407C81FF1F08B5364B1B78364B5A683649895C364801705B78002B58D154
:4000C000344B1B689A425CDA2F4B9B685BB9012000F0C2FC2C4A516892682F4B03EB01133121995431E013F0010F0BD0002000F0B3FC254A51689268274B03EB0113302103
:40010000995422E0204BDB68C3F10603194111F0010F0BD0012000F09FFC1B4A516892681D4B03EB0113312199540AE0002000F093FC154A51689268174B03EB0113302162
:400140009954114AD3680133D36040F2EF1000F08DFA0D4A9368013393600F2B11DD1346526801325A600020D860986000F074FC08BD012B05D1044B0022DA609A6001F03F
:4001800011FF08BD6B6400407C81FF1F9C81FF1F9483FF1F9083FF1F9883FF1F08B5084B1B7863B9342000F00BFB332000F014FB00F03AFB024B01221A7002225A7008BD39
:4001C0007C81FF1F08B5094B1B7873B140F23E3000F0F6FA40F23D3000F0FEFA00F024FB024B00221A7002225A7008BD7C81FF1F10B562B6514800F0C1FA514800F078FB22
:40020000504800F09DFB00F0F1FB2F2000F0BAFB2E2000F0C3FB4C4800F010FC01F0E8FE4A4B1878012100F01FFD00F021FFB0F5614F02D10122464B1A6100F053FD20B1A0
:4002400000F04AFD08B100F06BFE00F0E1FE70B1404800F0F5FE404B186000F0E5FE0028FBD000F0BDFE3A4B00225A615A6000F0DBFE28B3364B5A69374B1B689A421FDA88
:40028000334A526893421BD10DE000F0CDFE0028FBD02F4B5A69314B03EB0213185D00F08BFE013400E000240F2CEEDD284A53690133536100F0B8FE0028FBD000F090FE95
:4002C000234B5B78012B27D013B1022B12D0ACE7012000F0B7FA00F0C1FAB0FA80F0400900F0D8FA00F0BAFAB0FA80F0400900F0BDFA9AE7012000F0CDFA00F0D7FAB0FA30
:4003000080F0400900F09EFA00F0D0FAB0FA80F0400900F0ABFA88E7012000F0A7FA00F0B1FAB0FA80F0400900F08CFA00F0AAFAB0FA80F0400900F0ADFA76E785000000C5
:400340009D010000C5010000A9000000F9A2FF1F7C81FF1F9C81FF1F9083FF1F9883FF1FFEE700BFF0B40022174611E050F82760F3B226F0FF0608E001EB420511F812403A
:400380006D78A5550132013BDBB2002BF4D10137162FEBD9F0BC7047064B1B78DBB203F00701054A11701B09013213704422034B1A707047CF0100496E5800407658004096
:4003C00008B50A46002101F096FE08BD38B5EF22284B1A80182328490B7002310A80274A137040F23F1102321180023213700622234B1A705222A3F580731A70214B1B78FC
:40040000DBB2214A13704FF4E162204B1A8041F25122023B1A80002419250CE01C4B1B7803F0010343EA440404F003044FF4F07001F0EEFD013D0DB1032CEFD115B903202F
:40044000FFF78EFF134A4FF48073138007231370002311490B7048200231087013700532137002220D4B1A700D4A137843F00703137038BD80400040824000408640004039
:40048000004300400F010049A14600402242004025420040044000400640004001400040A243004008B501F01BFE08BD38B572B62C4A137843F00403137000240CE02A4D58
:4004C000630019194A0011462A44084691882858FFF776FF0134E4B2072CF0D923494FF09040FFF73FFF224A137843F0020313701032137843F0020313701E4C237843F01E
:4005000040032370A2F58632513A137843F010031370082218491948FFF7C4FF0A2218491848FFF7BFFF082217491848FFF7BAFF082217491748FFF7B5FF174A137843F026
:4005400008031370154D01232B70FFF73FFF81232B70FFF721FF0E2221461148FFF7A2FF38BD00BFE84600400C2100005C00004803500140A04300404002004802510040F5
:4005800048020048F051004054020048125100405C020048325100402243004000480040B043004008B501F06FFD03680C2B00D1FEE7FEE708B5104E104D16E029686B68F5
:4005C000AC68002204E051F8040B43F8040B0432A242F8D1E868002203E0002143F8041B04328242F9D11035013E002EE6D101F051FDFFF7FDFDFEE701000000D822000050
:4006000008B5104A104B1A60104A136843F40073136000230AE0032B03D80D4A52F8231000E00C490C4A42F8231001332F2BF2D90A4B1A780A4B1A70074A0A4B1A60FFF7C5
:4006400035FF08BD0004FA050CED00E014ED00E000000000A50500000080FF1FBC760040C080FF1F08ED00E001BE704708B5034B1B7A00FB03F001F0CBFC08BDCC80FF1FEC
:4006800070B504460E46074B1D681F2802D90020FFF7EAFF04F01F04103455F8240045F8246070BD08ED00E038B504460D46072902D90020FFF7D8FF1F2C02D90020FFF732
:4006C000D3FF04F01F0000F1604000F564406D01EDB2057038BD00BF134B1B78DBB20360124A127843EA02230360114A127843EA024303600F4A127843EA026303600E4B4E
:400700001B78DBB243600D4A127843EA022343600B4A127843EA024343600A4A127843EA02634360704700BF0301004904010049EC460040020100490101004900010049B5
:400740000501004906010049014B1B689864704708ED00E04001C0B2014B1870704700BF02E400E00422014B1A60704700E100E00422014B1A60704780E100E010B5044669
:40078000FFF7F6FF2046FFF7DFFF0720FFF7E2FFFFF7E8FF10BD00BF024A137843F080031370704770640040014B1870704700BF81640040014B1878704700BF616400400C
:4007C000014B1880704700BF40680040014B188880B2704780680040014B1880704700BF0068004008B501E0FFF7F0FFFFF7E2FF10F0080FF8D108BD08B50920FFF7E0FFFE
:400800000920FFF7E9FF01F00BFC064A137843F01003137001F008FCFFF7E4FF0120FFF7C3FF08BD9164004008B5054B1B7823B9FFF7E2FF0122024B1A70FFF7ADFF08BDC0
:400840009481FF1F044A137803F0FB03800000F0040018431070704730510040024B1878C0F38000704700BF31510040044A137803F0FE0300F0010018431070704700BF5D
:4008800030510040024B187800F00100704700BF31510040044A137803F0FD03400000F0020018431070704730510040024B1878C0F34000704700BF31510040014B1B6849
:4008C0005864704708ED00E04001C0B2014B1870704700BF01E400E00222014B1A60704700E100E00222014B1A60704780E100E010B50446FFF7F6FF2046FFF7DFFF07204F
:40090000FFF7E2FFFFF7E8FF10BD00BF014B1B681864704708ED00E04001C0B2014B1870704700BF00E400E00122014B1A60704700E100E00122014B1A60704780E100E09D
:4009400010B50446FFF7F6FF2046FFF7DFFF0720FFF7E2FFFFF7E8FF10BD00BF024A137843F08003137070477B640040014B1870704700BF8B640040014B1878704700BF2B
:400980006B640040014B1880704700BF54680040014B188880B2704794680040014B1880704700BF1468004008B501E0FFF7F0FFFFF7E2FF10F0080FF8D108BD08B50920C6
:4009C000FFF7E0FF0920FFF7E9FF01F029FB064A137843F01003137001F026FBFFF7E4FF0120FFF7C3FF08BD9B64004008B5054B1B7823B9FFF7E2FF0122024B1A70FFF757
:400A0000ADFF08BD9581FF1F014B1B68D864704708ED00E04001C0B2014B1870704700BF03E400E00822014B1A60704700E100E00822014B1A60704780E100E010B5044657
:400A4000FFF7F6FF2046FFF7DFFF0020FFF7E2FFFFF7E8FF10BD00BF044A137803F0BF03800100F0400018431070704700510040F8B501F0D5FA0546404A137843F001038B
:400A800013701032137843F00103137001273C4B1F700226943B1E7002F5E2521B32137803F07F0313700020FFF7E0FD354C237803F0F9032370344A137803F0DF0313707C
:400AC00023783B4323703846FFF7D0FD2820FFF7CDFD2E4B1A7802F07F021A701A7802F0BF021A702378334323703046FFF7BEFD237843F0040323700023254A13700132AF
:400B00001370284601F090FA07211720FFF7CCFD20491720FFF7B4FD07211820FFF7C4FD1D491820FFF7ACFD07211520FFF7BCFD1A491520FFF7A4FD07210420FFF7B4FD62
:400B400017490420FFF79CFD07210520FFF7ACFD14490520FFF794FD07210620FFF7A4FD11490620FFF78CFD07210C20FFF79CFD0E490C20FFF784FDF8BD00BFA543004010
:400B80009D6000409443004012600040F85100408460004009160000F1130000051600006515000095150000C91500001116000008B5214B18700023204A1370204A13706D
:400BC000204A1370204A1370204A1370204A1370204A1370204B4FF400021A604FF080721A604FF400121A6010221A6020221A6040221A6011B1012906D00BE0174A1378D3
:400C000003F0FE0313700AE0144A137843F00103137004E0114A137843F00103137003220F4B1A708022203B1A70012001F0F0F904220C4B1A7008BDF9A2FF1FF0A2FF1F6C
:400C400073A3FF1FF6A2FF1FF8A2FF1F77A3FF1F78A3FF1F76A3FF1F00E100E009600040286000401260004038B504460D46064B1B7823B9FFF7FCFE0122034B1A702946A2
:400C80002046FFF795FF38BD9681FF1F00230A4A13700A4A13700A4A13700A4A13700A4A13700A4A13700A4A13700322094B1A708022203B1A707047F0A2FF1F73A3FF1FF1
:400CC000F6A2FF1FF8A2FF1F77A3FF1F78A3FF1F76A3FF1F28600040014B1878704700BFF6A2FF1F064B1B7813F0FF0F05D0044B1878C0B200221A7070470020704700BFFA
:400D000073A3FF1F00EB40008300024A13445878704700BFFCA2FF1F431EDBB2072B0BD8064B00011A18185C00F00F00537843EA0020023880B2704700207047FC5F004085
:400D4000431EDBB2072B3CD8F0B4074600EB4004A3001C4C2344DB889BB2C3F500739A4208D900EB400293002344DA8892B2C2F5007292B200EB4004A300124C2344DB78F1
:400D800043EA1223104D04012E192B55D3B2737039B909E0CE5C3D010C4C665501339BB200E000239A42F5D8420002449300054A134400225A705A79D2B20001044B1A54FB
:400DC000F0BC7047FCA2FF1FFC5F004078600040FE5F0040431EDBB2072B0BD8420002449300054A134400225A705A79D2B20001024B1A54704700BFFCA2FF1FFE5F0040F2
:400E000070B5D9B1054614460E46C8B1082819D8FFF782FFA04203D22846FFF77DFF0446002305E02901094A525CF25401339BB2A342F7D32846FFF7CDFF04E0002402E055
:400E4000002400E00024204670BD00BF7860004010B4FF2400230EE0094AD25C02EB42029100084A11448A7AD2B2824201D11C4602230133DBB2012BEED9204610BC7047BC
:400E8000E0A2FF1FFCA2FF1F10B5204C2079FFF7DFFF237813F0800F0ED06378DBB2212B2FD11B4B07221A80C0EBC000194A1044586000F00BFB10BD144B5B78DBB2202BA9
:400EC00002D0222B10D01EE0114A07231380C0EBC00310490B4453600F4A135C43F00103135400F01BFB10BD084B9B780B4A22F81030094A135C43F00203135400F0A4F9D8
:400F000010BD002010BD002010BD00BF006000407CA3FF1FDC80FF1FD8A2FF1FE8A2FF1F10B500241F4B1C701F4B1C705C700AE01E4B185DC0B2431EDBB2072B01D8FFF7EA
:400F400049FF0134E4B2012CF2D9194B1B7813F0FF0F1AD0154B1B7813F0FF0F17D0154B1B7813F0FF0F14D0114B1B78DBB2082B11D80E4B1B78DBB2082B0ED80D4B1B788C
:400F8000DBB2082B0BD8002010BD012010BD012010BD012010BD012010BD012010BD012010BD00BF9781FF1FD8A2FF1FE4A2FF1FDCA2FF1FE0A2FF1F00B583B002A901F814
:400FC000010D054B1B78054AD05C0122FFF7B8FE03B05DF804FB00BF9781FF1FDCA2FF1F00B583B0074B1B88ADF80430064B1B78064AD05C022201A9FFF7A2FE03B05DF89C
:4010000004FB00BF3C2100009781FF1FDCA2FF1F08B5034B1B78034AD05CFFF773FE08BD9781FF1FE4A2FF1F08B5034B1B78034AD05CFFF767FE08BD9781FF1FDCA2FF1F9D
:4010400008B5084B1B78084AD35CDBB203EB43018A0006490A44128992B201461846FFF7CFFE08BD9781FF1FE4A2FF1FFCA2FF1F10B4094B1B78094CC3EBC303E118C87817
:401080008A7842EA00204A7842EA0022E05C40EA022010BC704700BF9781FF1FDC80FF1FC37803F0030390F9020000280FDA032B06D002F001030B48C15442F001020EE003
:4010C000C2F380030848C15442F0040207E0032B05D0C2F340030548C15442F002021046704700BFDCA2FF1FE0A2FF1FE4A2FF1F1D4B19781D4A13889BB20B449BB213807E
:4011000000220FE01A494B681B78DBB2194883544B6801334B600132D2B20B889BB2013B9BB20B80124B1B889BB20BB1072AE9D90D4B1B78DBB2082B00D05AB10E490B7897
:4011400083F080030B700F210C4B197002210C4B197004E0022309490B7009490B70094B1A70014B1A70704776A3FF1F6CA3FF1F7CA3FF1F00600040F7A2FF1F79A3FF1FAB
:40118000F0A2FF1F72A3FF1F0222074B1A708022064B1A700F22064B1A700023054A1370054A137001207047F0A2FF1FF7A2FF1F79A3FF1F76A3FF1F72A3FF1F08B5FFF766
:4011C00097FF08BD10B4194B197801F00F010239C9B2174A13889BB20B449BB21380002011E0144A5468144B1B5CDBB223705368013353600130C0B20139C9B213889BB2A9
:40120000013B9BB213800B4B1B889BB20BB10029E7D10A4B19700A4A137883F0800313700B22084B1A7010BC704700BF296000406CA3FF1F7CA3FF1F0060004072A3FF1F27
:40124000F7A2FF1F79A3FF1F0623064A1370064A13708022054B1A700022054B1A700120704700BFF0A2FF1F79A3FF1FF7A2FF1F72A3FF1F064B9B6843B1054B9A681070B1
:401280009A6804490988518000229A60704700BF7CA3FF1F6CA3FF1F08B5134B1A78D2B21A701B78DBB213F0800F02D00F4A137008BD0220FFF7DEFF0D4B1B7803F060036B
:4012C000202B05D0402B06D043B900F091FC06E000F0AEFE03E000F035FE00E0002010B90322024B1A7008BD2860004079A3FF1F0060004008B5094B1978094A13889BB283
:401300000B449BB213800022064B1A700120FFF7B1FF0322044B1A7008BD00BF76A3FF1F6CA3FF1FF0A2FF1F79A3FF1F08B50B4B1B78DBB2042B06D0062B07D0022B0BD1A1
:40134000FFF7D8FF08BDFFF73DFF08BD0320FFF791FF0322024B1A7008BD00BFF0A2FF1F79A3FF1F08B50022044B1A700120FFF781FF0322024B1A7008BD00BFF0A2FF1F52
:4013800079A3FF1F08B50B4B1B7813F0FF0F07D0084A137843F0800307490B70002313700022064B1A700120FFF764FF0322044B1A7008BD77A3FF1F08600040F0A2FF1F97
:4013C00079A3FF1F08B5094B1B78DBB2042B06D0062B07D0022B07D1FFF7F0FE08BDFFF7C1FF08BDFFF7CEFF08BD00BFF0A2FF1F08B5284B1B78DBB213F0100F48D013F0C8
:40140000800F0CD003F00F03012B16D1FFF744FF214B1B7813F0800F11D1012312E013F0400F03D0FFF7CEFF01230BE013F0200F07D0FFF77BFF012304E0002302E00023C7
:4014400000E0002323B3134B1B7813F0800F1FD1124B1B78124A12781343124A13701278D2B2934214D10C4B1B78DBB2094A127812F0800F07D1084B1B78DBB2054A13704B
:40148000137803F00F03044A1278D2B29342EAD108BD00BF2860004079A3FF1FF7A2FF1F72A3FF1F296000400022064B1A80064B9B682BB1044A916800230B709268538088
:4014C000704700BF6CA3FF1F7CA3FF1F08B50F4B1B889BB213B9FFF757FE15E002220C4B1A7000220B4B1A70FFF7DEFF0A4AD179937943EA0123054A128892B2934201D24F
:40150000024A1380FFF7F4FD012008BD7CA3FF1FF0A2FF1FF7A2FF1F0060004008B504220B4B1A7080220B4B1A70FFF7BDFF0A4AD179937943EA0123084A128892B29342C4
:4015400001D2064A13800B22054B1A70012008BDF0A2FF1FF7A2FF1F006000407CA3FF1F79A3FF1F0122094B1A700F3B9B7C084B1B7B03F00303934204D0054AD37B83F04D
:401580008003D3730122024B5A7370470B600040FCA2FF1F02220A4B1A700F3B93F82230084B1B7E03F00303012B04D0054AD37E83F08003D3760122024B5A76704700BF63
:4015C0000B600040FCA2FF1F04220C4B1A700F3B93F832300A4B93F8243003F00303012B06D0074A92F8273083F0800382F827300122034B83F82520704700BF0B600040CC
:40160000FCA2FF1F704700BF08B5FFF73FFB08BD08B500F0A3FC08BD70B588B0054603AC174E0FCE0FC43368237035B322232B7003236B7001A8FFF74FF8002402231AE029
:4016400008AA224412F81C2C08A901EB121111F8141CE954581C00212954981C02F00F0208AE324412F8142C2A54DA1CA9540134E4B20433DBB2212BE2D908B070BD00BFE0
:401680004021000010B401233EE019461A010C242148845403EB4300820020480244527912F0FF0F13D003EB430082001B480244127912F0800F04D01801194A02449470A7
:4016C0000AE01801164A02440820907004E01801134A0244802090704800084482000F480244D488E4B208010B4901448C71D088C0F30720C871D088C0B20871D288C2F3D8
:4017000007224A710133DBB2082BBED9FF22054B1A7010BC704700BF70600040FCA2FF1FFC5F00400A600040074B1A78074B03EBC2035B681A7C824204D9C00010301844AD
:401740004068704700207047F9A2FF1F54210000F8B5404B1B7813F0FF0F79D03D4B18780138C0B2FFF7E0FF047AC2683A4B1878C0B200236AE01178884264D13749095C3F
:40178000C9B25578A9425ED1917801F07F01D67806F00306DFF8C8E04D000D44AF000EEB07054FF0000C85F803C092F802C085F804C092F803C00EF807C097882F8192F9A3
:4017C0000250002D0DDA012E01D1072700E00D274E000E44B500224E35446F7101266E700CE0012E01D1052700E009274E000E44B5001B4E35446F7100266E70DFF868E0BA
:401800000F010EEB07060125B57001FA05F529448D00134929440D89C5F307250EF807500D89EDB27570CE88F6B20E4D3D44AE71CE88C6F30726EE71CE88F6B22E71C9881C
:40184000C1F30721697108320133DBB2A34292D3F8BD00BFF6A2FF1FF8A2FF1F70A3FF1FFCA2FF1F70600040FC5F0040034B1A78034B03EBC2035868704700BFF9A2FF1F23
:401880005421000008B5084B18780138C0B2FFF74BFF30B142681279023200EBC203586808BD002008BD00BFF6A2FF1F2DE9F047002310E0724D5900CA189600AC19002278
:4018C000AA55A270E2702281A272627034462C4462710133DBB2082BECD940B90AE000226849CA546849CA540133DBB200E00023012BF4D9654B1B7813F0FF0F00F0BD80A5
:40190000624B18780138C0B2FFF70EFF80464368DB7913F0400F05D05D4A137843F00103137004E05A4A137803F0FE03137098F808704FF0000A01266FE0D8F80C50002443
:4019400067E0AB7803F07F039E425FD1314606EB460083004A4803441B899BB2A888834206D206EB460E4FEA8E03454A134418812B784448C35CDBB26878834246D195F8FE
:4019800002C0DFF8FCE04B000B4498000EEB000383F804C0EB780EF80030EB7803F0030395F90200002813DA012B02D14FF0070901E04FF00D09DFF8C8E04B0003EB010C62
:4019C0004FEA8C00704480F805900121417012E0012B02D14FF0050901E04FF00909DFF8A0E04B0003EB010C4FEA8C00704480F8059000214170AB790A2B01D0022B05D1FC
:401A0000524631462846FFF74BFB824608350134E4B2BC4295D30136F6B2082E8DD9D8F80C0000220CE0837803F07F0310F8084B03EB43039900124B19448C720132D2B24B
:401A4000BA42F0D3FFF71EFF124B1860002301210FE00B4D4A00501884002C44E380228992B213449BB203F0010213449BB20131C9B20829EDD9FFF705FEBDE8F08700BF85
:401A8000FCA2FF1F70A3FF1FF4A2FF1FF6A2FF1F78A3FF1F68A3FF1F08B5154B1B7903F07F035A1ED2B2072A20D8590019448A0010490A44917841F0010191700021D1709C
:401AC000517841F002015170127912F0800F05D01B01094A1A448D23937004E01B01064A1A4489239370FFF7AFFB08BD002008BD00600040FCA2FF1FFC5F0040264B1B7914
:401B000003F07F035A1ED2B2072A43D810B5590019448A0021490A44917801F0FE0191700021D17019017F241D484454517801F0FD015170127912F0800F14D003EB43016A
:401B40008A0016490A445278D2B2012A05D11B0102461A440C23937019E01B01104A1A440D23937013E003EB43018A000B490A445278D2B2012A05D11B01094A1A44082353
:401B8000937004E01B01064A1A4409239370FFF75BFB10BD0020704700600040FCA2FF1FFC5F004010B50E4B1C79E4B20D4B18780138C0B2FFF7B8FD43681B799C4201D9E0
:401BC000022C0AD8084A135DDBB208490B55044B9B78DBB21355012010BD002010BD00BF00600040F6A2FF1F70A3FF1FF4A2FF1F10B59C4B1B78DBB200219B4A118013F043
:401C0000800F00F0AD80974A5278D2B20A2A00F27481DFE812F06900720172017201720172010B007201920072019A008D4BDB78DBB2012B09D1FFF719FE42688A4B5A601C
:401C400012221A80FFF742FC10BD864BDB78DBB2022B13D1834B9878FFF766FD002800F04E814268804B5A605A68D1785A68927842EA01221A80FFF729FC10BD794BDB78C7
:401C8000DBB2032B05D02CE00A7811440133DBB201E000237549734A9278D2B2934203D20A7812F0FF0FEFD16E4B9B7813F0FF0F0BD06C4B9B78DBB26D4A127C934204D1E9
:401CC0006C4C2046FFF7A8FC21460B7813F0FF0F00F017810B78644A13805160FFF7F6FB10BD00F0A5F910BD13F0030317D0022B40F009815C490B805A4B1B7903F07F0370
:401D000003EB43039A005C4B1A449278D2B25B4B1A7000225A704B60FFF7D8FB10BD524902230B80564B1A78D2B2544B1A7000225A704B60FFF7CAFB10BD4B4B01221A8048
:401D4000504A5A60FFF7C2FB10BD474A01231380444B1B794C490B445360FFF7B7FB10BD404A5278013A0A2A00F2CF80DFE812F04C00CD009800CD000B00CD00CD00CD005B
:401D80001300CD003000374B9B78DBB23F4A1370FFF75AFA10BD334B9B7803F0FF041BB1601EC0B2FFF7C0FC04B110B9002C40F0AE80344B1B78DBB29C4206D0314B1C7076
:401DC0000120334B1870FFF771FDFFF73DFA10BDFFF7E8FE002800F09C80224A1379DBB21279D2B22B490A702B4AD25CD2B22649CB5CDBB29A4204D00122254B1A70FFF7BF
:401E0000A7FCFFF721FA10BD03F00303012B17D04BB1022B7FD1134B9B7813F0FF0F7CD1FFF76CFE10BD0F4B9B78DBB2012B76D1134A137803F0FD031370FFF705FA10BD13
:401E4000084B1B79DBB2012B6BD8064B98781B79DBB21249CA5C22EA0002CA54FFF7F4F910BD00BF006000407CA3FF1FBC210000A022000088A3FF1FFCA2FF1F9881FF1F29
:401E800078A3FF1FF6A2FF1F70A3FF1F77A3FF1F73A3FF1FF8A2FF1FF4A2FF1F74A3FF1F03F00303012B17D04BB1022B3BD1224B9B7813F0FF0F38D1FFF7EEFD10BD1E4B03
:401EC0009B78DBB2012B32D11C4A137843F002031370FFF7B9F910BD174B1B79DBB2012B27D8154B98781B79DBB21549CA5C22EA0002CA54FFF7A8F910BD002010BD002092
:401F000010BD002010BD002010BD002010BD002010BD002010BD002010BD002010BD002010BD002010BD002010BD002010BD002010BD002010BD00BF0060004078A3FF1F33
:401F400074A3FF1F044B1B7813F0800F01D0024B5B780020704700BF00600040024B1878C0F38010704700BF8F450040024A137843F00103137070477364004010B500F0D3
:401F80007F0400F04DF8054A137843F00303137000F04AF8024B1C7010BD00BF9364004043640040024B187800F07F00704700BF0364004000F07F00014B1870704700BFFC
:401FC0000364004000F07F00014B1870704700BF2364004008B57820FFF7F4FF7F20FFF7E9FF7F20FFF7CAFFFFF7C0FF08BD00BF08B5054B1B7823B9FFF7ECFF0122024B9B
:402000001A70FFF7B3FF08BD9A81FF1F000000000230800803D000BF01380046FCD17047EFF3108072B6704780F31088704700BF08B5124B1B7803F00303012B02D0022B7E
:4020400004D00FE00D4B1B79DBB20CE00B4B1B7903F07F0303EB43039A00094B1A44937ADBB200E00023074A1268D35C022B02D1FEF70AFF08BD002008BD00BF00600040BB
:40208000FCA2FF1F68A3FF1F014B1868704700BF5881FF1F0E4B70B51E460E4C0025E41AA410A54204D056F8253098470135F8E700F000F9084B094C1E46E41AA4100025D1
:4020C000A54204D056F8253098470135F8E770BDC0220000C0220000C0220000C822000010B5431E0A44914204D011F8014B03F8014FF8E710BD03460244934202D003F839
:40210000011BFAE77047000000000000205100401000405100403000C0510040100000000140001000140140000800400140000A004C014000020050014020000D0A000038
:402140003031323334353637383941424344454600000000010000005C21000001000000A022000000000000000000000100000074210000010000005C2200000300000064
:40218000A021000000000000000000000000000000000000000000009C210000020A000000008103080002000100820240000A000100030240000A000203000004030904CF
:4021C0002C0343007900700072006500730073002000530065006D00690063006F006E0064007500630074006F007200100355005300420055004100520054003803430091
:4022000044004300200043006F006D006D0075006E00690063006100740069006F006E00200049006E00740065007200660061006300650026034300440043002000440099
:40224000610074006100200049006E00740065007200660061006300650000000902430002010180320904000001020201030524001001042402020524060001052401009D
:40228000010705810308000A09040100020A0000040705820240000007050302400000001201000202000008B40432F20000010280014300F8B500BFF8BC08BC9E467047FB
:4022C0004D00000001060000F8B500BFF8BC08BC9E46704729000000E8220000C880FF1F9800000050220000000000000000E02EC05D00001800000000366E0100C20100BD
:4023000000000800C201000000080000A120000000000200000000000000000000000000000000000000000000000000000000000000000000000000B22200000000000033
:402340000000000000000000000000000000000000000000000000000000000000000000000000000000000000000000000000000000000000000000F880FF1F00000000C7
:40238000000000000000000000000000000000000000000000000000000000000000000000000000000000000000000000000000000000000000000000000000000000001D
:4023C00000000000000000000000000000000000000000000000000000000000000000000000000000000000000000000000000000000000000000000000000000000000DD
:40240000000000000000000000000000000000000000000000000000000000000000000000000000000000000000000000000000000000000000000000000000000000009C
:40244000000000000000000000000000000000000000000000000000000000000000000000000000000000000000000000000000000000000000000000000000000000005C
:020000040003F7
:0200000480007A
:4000000001450040015200400264004033000140160101401B0201400E030140020501400107014001090140300A0140170B01400217014002190140094001400C410140FD
:4000400006420140044301400447014003480140014C014003500140025101407E027C40810D8B0D405449FF4AFF4BFF4F01501852805A045B045D115F01604062406440D5
:400080006540668068806A806C806E8082019201B001BE01C054C5ECC602C807C9FFCAFFCBFFCD83CE03CF01D018D401D604D804DA04DB04DD11DF01E040E240E440E54052
:4000C000E680E880EA80EC80EE8006800C021E804280468048024C024D044F0156805D045E805F01650170028101C010C210D081D218D6D0D88000010206100412013002EF
:40010000320436013E4458045C025F01C005C9FFCAFFCBFFCC02CEE0D201DA0CDB04DF01E248E3A1E8F0EAF0ECF0EEF007800E801EA01F8048016801694079408380861069
:40014000C010C210D208DE08AF80E208E204E204405449FF4AFF4BFF4F0150185A045F016040624064406540668068806A806C806E809201AE01B001BE01C015C5ECC60236
:40018000C807C9FFCAFFCBFFCD83CE03CF01D018D280D401D604D804DA04DB04DF01E040E240E440E540E680E880EA80EC80EE800F8017801E804280478048014D044F816E
:4001C000568057405D045E805F016780740177808740C210C480D011D218D6D0D880EA02EE02EA02EE0230023110344037083B208002CCF0CE10E2200E0433103720811066
:40020000844097209C409D109F08C280CC30E630870897209F38AE04E210E840831097209F30E2200B440F808340C20EAF30EA40EE40AF44000708070C0100FF012A0000D3
:4002400080C04000000000004000000000000000C0000000000B0B0000000000000707000000000000000000000000000000000000000000000000000000000000000000DA
:40028000000000000000000000000000000000000000000000000000000000000000000000000000000000000000000000000000000000000000000000000000000000003E
:4002C00000000000000000000000000000000000000000000000000000000000000000000000000000000000000000000000000000000000000000000000000000000000FE
:4003000000000000000000000000000000000000000000000000000000000000000000000000000000000000000000000000000000000000000000000000000000000000BD
:40034000000000000000000000000000000000000000000000000000000000000000000000000000000000000000000000000000000000000000000000000000000000007D
:0200000490006A
:0400000000004005B7
:0200000490105A
:04000000BC90ACAF55
:0200000490303A
:02000000F5E227
:0200000490402A
:4000000000000000000000000000000000000000000000000000000000000000000000000000000000000000000000000000000000000000000000000000000000000000C0
:400040000000000000000000000000000000000000000000000000000000000000000000000000000000000000000000000000000000000000000000000000000000000080
:400080000000000000000000000000000000000000000000000000000000000000000000000000000000000000000000000000000000000000000000000000000000000040
:4000C0000000000000000000000000000000000000000000000000000000000000000000000000000000000000000000000000000000000000000000000000000000000000
:0200000490501A
:0C00000000012E12306900012E20264B5A
:00000001FF